{
  "_format": "hh-sol-artifact-1",
  "contractName": "Ticket",
  "sourceName": "contracts/Ticket.sol",
  "abi": [
    {
      "inputs": [],
      "stateMutability": "nonpayable",
      "type": "constructor"
    },
    {
      "anonymous": false,
      "inputs": [
        {
          "indexed": true,
          "internalType": "address",
          "name": "owner",
          "type": "address"
        },
        {
          "indexed": true,
          "internalType": "address",
          "name": "approved",
          "type": "address"
        },
        {
          "indexed": true,
          "internalType": "uint256",
          "name": "tokenId",
          "type": "uint256"
        }
      ],
      "name": "Approval",
      "type": "event"
    },
    {
      "anonymous": false,
      "inputs": [
        {
          "indexed": true,
          "internalType": "address",
          "name": "owner",
          "type": "address"
        },
        {
          "indexed": true,
          "internalType": "address",
          "name": "operator",
          "type": "address"
        },
        {
          "indexed": false,
          "internalType": "bool",
          "name": "approved",
          "type": "bool"
        }
      ],
      "name": "ApprovalForAll",
      "type": "event"
    },
    {
      "anonymous": false,
      "inputs": [
        {
          "indexed": false,
          "internalType": "address",
          "name": "_userAddress",
          "type": "address"
        }
      ],
      "name": "Bought",
      "type": "event"
    },
    {
      "anonymous": false,
      "inputs": [
        {
          "indexed": false,
          "internalType": "address",
          "name": "_userAddress",
          "type": "address"
        }
      ],
      "name": "ExtendedTicket",
      "type": "event"
    },
    {
      "anonymous": false,
      "inputs": [
        {
          "indexed": false,
          "internalType": "address",
          "name": "_userAddress",
          "type": "address"
        }
      ],
      "name": "SubTractedTimes",
      "type": "event"
    },
    {
      "anonymous": false,
      "inputs": [
        {
          "indexed": true,
          "internalType": "address",
          "name": "from",
          "type": "address"
        },
        {
          "indexed": true,
          "internalType": "address",
          "name": "to",
          "type": "address"
        },
        {
          "indexed": true,
          "internalType": "uint256",
          "name": "tokenId",
          "type": "uint256"
        }
      ],
      "name": "Transfer",
      "type": "event"
    },
    {
      "inputs": [
        {
          "internalType": "address",
          "name": "to",
          "type": "address"
        },
        {
          "internalType": "uint256",
          "name": "tokenId",
          "type": "uint256"
        }
      ],
      "name": "approve",
      "outputs": [],
      "stateMutability": "nonpayable",
      "type": "function"
    },
    {
      "inputs": [
        {
          "internalType": "address",
          "name": "owner",
          "type": "address"
        }
      ],
      "name": "balanceOf",
      "outputs": [
        {
          "internalType": "uint256",
          "name": "",
          "type": "uint256"
        }
      ],
      "stateMutability": "view",
      "type": "function"
    },
    {
      "inputs": [],
      "name": "buy",
      "outputs": [],
      "stateMutability": "payable",
      "type": "function"
    },
    {
      "inputs": [],
      "name": "extendTicket",
      "outputs": [],
      "stateMutability": "payable",
      "type": "function"
    },
    {
      "inputs": [
        {
          "internalType": "uint256",
          "name": "tokenId",
          "type": "uint256"
        }
      ],
      "name": "getApproved",
      "outputs": [
        {
          "internalType": "address",
          "name": "",
          "type": "address"
        }
      ],
      "stateMutability": "view",
      "type": "function"
    },
    {
      "inputs": [
        {
          "internalType": "address",
          "name": "userAddress",
          "type": "address"
        }
      ],
      "name": "getTicketId",
      "outputs": [
        {
          "internalType": "uint256",
          "name": "",
          "type": "uint256"
        }
      ],
      "stateMutability": "view",
      "type": "function"
    },
    {
      "inputs": [
        {
          "internalType": "address",
          "name": "userAddress",
          "type": "address"
        }
      ],
      "name": "getTicketTimes",
      "outputs": [
        {
          "internalType": "uint256",
          "name": "",
          "type": "uint256"
        }
      ],
      "stateMutability": "view",
      "type": "function"
    },
    {
      "inputs": [
        {
          "internalType": "address",
          "name": "owner",
          "type": "address"
        },
        {
          "internalType": "address",
          "name": "operator",
          "type": "address"
        }
      ],
      "name": "isApprovedForAll",
      "outputs": [
        {
          "internalType": "bool",
          "name": "",
          "type": "bool"
        }
      ],
      "stateMutability": "view",
      "type": "function"
    },
    {
      "inputs": [
        {
          "internalType": "address",
          "name": "userAddress",
          "type": "address"
        }
      ],
      "name": "isExpired",
      "outputs": [
        {
          "internalType": "bool",
          "name": "",
          "type": "bool"
        }
      ],
      "stateMutability": "view",
      "type": "function"
    },
    {
      "inputs": [],
      "name": "latestedTicket",
      "outputs": [
        {
          "internalType": "uint256",
          "name": "",
          "type": "uint256"
        }
      ],
      "stateMutability": "view",
      "type": "function"
    },
    {
      "inputs": [],
      "name": "name",
      "outputs": [
        {
          "internalType": "string",
          "name": "",
          "type": "string"
        }
      ],
      "stateMutability": "view",
      "type": "function"
    },
    {
      "inputs": [
        {
          "internalType": "uint256",
          "name": "tokenId",
          "type": "uint256"
        }
      ],
      "name": "ownerOf",
      "outputs": [
        {
          "internalType": "address",
          "name": "",
          "type": "address"
        }
      ],
      "stateMutability": "view",
      "type": "function"
    },
    {
      "inputs": [
        {
          "internalType": "address",
          "name": "from",
          "type": "address"
        },
        {
          "internalType": "address",
          "name": "to",
          "type": "address"
        },
        {
          "internalType": "uint256",
          "name": "tokenId",
          "type": "uint256"
        }
      ],
      "name": "safeTransferFrom",
      "outputs": [],
      "stateMutability": "nonpayable",
      "type": "function"
    },
    {
      "inputs": [
        {
          "internalType": "address",
          "name": "from",
          "type": "address"
        },
        {
          "internalType": "address",
          "name": "to",
          "type": "address"
        },
        {
          "internalType": "uint256",
          "name": "tokenId",
          "type": "uint256"
        },
        {
          "internalType": "bytes",
          "name": "data",
          "type": "bytes"
        }
      ],
      "name": "safeTransferFrom",
      "outputs": [],
      "stateMutability": "nonpayable",
      "type": "function"
    },
    {
      "inputs": [
        {
          "internalType": "address",
          "name": "operator",
          "type": "address"
        },
        {
          "internalType": "bool",
          "name": "approved",
          "type": "bool"
        }
      ],
      "name": "setApprovalForAll",
      "outputs": [],
      "stateMutability": "nonpayable",
      "type": "function"
    },
    {
      "inputs": [
        {
          "internalType": "address",
          "name": "userAddress",
          "type": "address"
        }
      ],
      "name": "subtractTimes",
      "outputs": [],
      "stateMutability": "nonpayable",
      "type": "function"
    },
    {
      "inputs": [
        {
          "internalType": "bytes4",
          "name": "interfaceId",
          "type": "bytes4"
        }
      ],
      "name": "supportsInterface",
      "outputs": [
        {
          "internalType": "bool",
          "name": "",
          "type": "bool"
        }
      ],
      "stateMutability": "view",
      "type": "function"
    },
    {
      "inputs": [],
      "name": "symbol",
      "outputs": [
        {
          "internalType": "string",
          "name": "",
          "type": "string"
        }
      ],
      "stateMutability": "view",
      "type": "function"
    },
    {
      "inputs": [
        {
          "internalType": "address",
          "name": "",
          "type": "address"
        }
      ],
      "name": "ticketOf",
      "outputs": [
        {
          "internalType": "uint256",
          "name": "ticketId",
          "type": "uint256"
        },
        {
          "internalType": "uint256",
          "name": "times",
          "type": "uint256"
        }
      ],
      "stateMutability": "view",
      "type": "function"
    },
    {
      "inputs": [
        {
          "internalType": "uint256",
          "name": "tokenId",
          "type": "uint256"
        }
      ],
      "name": "tokenURI",
      "outputs": [
        {
          "internalType": "string",
          "name": "",
          "type": "string"
        }
      ],
      "stateMutability": "view",
      "type": "function"
    },
    {
      "inputs": [
        {
          "internalType": "address",
          "name": "from",
          "type": "address"
        },
        {
          "internalType": "address",
          "name": "to",
          "type": "address"
        },
        {
          "internalType": "uint256",
          "name": "tokenId",
          "type": "uint256"
        }
      ],
      "name": "transferFrom",
      "outputs": [],
      "stateMutability": "nonpayable",
      "type": "function"
    }
  ],
  "bytecode": "0x60806040523480156200001157600080fd5b506040518060400160405280600681526020017f5469636b657400000000000000000000000000000000000000000000000000008152506040518060400160405280600681526020017f5469636b65740000000000000000000000000000000000000000000000000000815250816000908051906020019062000096929190620000b8565b508060019080519060200190620000af929190620000b8565b505050620001cd565b828054620000c69062000197565b90600052602060002090601f016020900481019282620000ea576000855562000136565b82601f106200010557805160ff191683800117855562000136565b8280016001018555821562000136579182015b828111156200013557825182559160200191906001019062000118565b5b50905062000145919062000149565b5090565b5b80821115620001645760008160009055506001016200014a565b5090565b7f4e487b7100000000000000000000000000000000000000000000000000000000600052602260045260246000fd5b60006002820490506001821680620001b057607f821691505b60208210811415620001c757620001c662000168565b5b50919050565b6130fa80620001dd6000396000f3fe60806040526004361061012a5760003560e01c806370a08231116100ab578063a6f2ae3a1161006f578063a6f2ae3a1461040a578063b88d4fde14610414578063ba2eb5411461043d578063c87b56dd1461047a578063d848f991146104b7578063e985e9c5146104e05761012a565b806370a08231146102fe578063903fe15f1461033b57806395d89b411461037957806395ef1aeb146103a4578063a22cb465146103e15761012a565b806323b872dd116100f257806323b872dd1461020757806328b8b4c81461023057806342842e0e1461025b57806360364b69146102845780636352211e146102c15761012a565b806301ffc9a71461012f57806306fdde031461016c578063081812fc14610197578063095ea7b3146101d4578063111e06fa146101fd575b600080fd5b34801561013b57600080fd5b5061015660048036038101906101519190611f36565b61051d565b6040516101639190611f7e565b60405180910390f35b34801561017857600080fd5b506101816105ff565b60405161018e9190612032565b60405180910390f35b3480156101a357600080fd5b506101be60048036038101906101b9919061208a565b610691565b6040516101cb91906120f8565b60405180910390f35b3480156101e057600080fd5b506101fb60048036038101906101f6919061213f565b6106d7565b005b6102056107ef565b005b34801561021357600080fd5b5061022e6004803603810190610229919061217f565b6109ae565b005b34801561023c57600080fd5b50610245610a0e565b60405161025291906121e1565b60405180910390f35b34801561026757600080fd5b50610282600480360381019061027d919061217f565b610a14565b005b34801561029057600080fd5b506102ab60048036038101906102a691906121fc565b610a34565b6040516102b891906121e1565b60405180910390f35b3480156102cd57600080fd5b506102e860048036038101906102e3919061208a565b610b33565b6040516102f591906120f8565b60405180910390f35b34801561030a57600080fd5b50610325600480360381019061032091906121fc565b610be5565b60405161033291906121e1565b60405180910390f35b34801561034757600080fd5b50610362600480360381019061035d91906121fc565b610c9d565b604051610370929190612229565b60405180910390f35b34801561038557600080fd5b5061038e610cc1565b60405161039b9190612032565b60405180910390f35b3480156103b057600080fd5b506103cb60048036038101906103c691906121fc565b610d53565b6040516103d891906121e1565b60405180910390f35b3480156103ed57600080fd5b506104086004803603810190610403919061227e565b610d9f565b005b610412610db5565b005b34801561042057600080fd5b5061043b600480360381019061043691906123f3565b610f6e565b005b34801561044957600080fd5b50610464600480360381019061045f91906121fc565b610fd0565b6040516104719190611f7e565b60405180910390f35b34801561048657600080fd5b506104a1600480360381019061049c919061208a565b61108b565b6040516104ae9190612032565b60405180910390f35b3480156104c357600080fd5b506104de60048036038101906104d991906121fc565b6110f3565b005b3480156104ec57600080fd5b5061050760048036038101906105029190612476565b611279565b6040516105149190611f7e565b60405180910390f35b60007f80ac58cd000000000000000000000000000000000000000000000000000000007bffffffffffffffffffffffffffffffffffffffffffffffffffffffff1916827bffffffffffffffffffffffffffffffffffffffffffffffffffffffff191614806105e857507f5b5e139f000000000000000000000000000000000000000000000000000000007bffffffffffffffffffffffffffffffffffffffffffffffffffffffff1916827bffffffffffffffffffffffffffffffffffffffffffffffffffffffff1916145b806105f857506105f78261130d565b5b9050919050565b60606000805461060e906124e5565b80601f016020809104026020016040519081016040528092919081815260200182805461063a906124e5565b80156106875780601f1061065c57610100808354040283529160200191610687565b820191906000526020600020905b81548152906001019060200180831161066a57829003601f168201915b5050505050905090565b600061069c82611377565b6004600083815260200190815260200160002060009054906101000a900473ffffffffffffffffffffffffffffffffffffffff169050919050565b60006106e282610b33565b90508073ffffffffffffffffffffffffffffffffffffffff168373ffffffffffffffffffffffffffffffffffffffff161415610753576040517f08c379a000000000000000000000000000000000000000000000000000000000815260040161074a90612589565b60405180910390fd5b8073ffffffffffffffffffffffffffffffffffffffff166107726113c2565b73ffffffffffffffffffffffffffffffffffffffff1614806107a157506107a08161079b6113c2565b611279565b5b6107e0576040517f08c379a00000000000000000000000000000000000000000000000000000000081526004016107d79061261b565b60405180910390fd5b6107ea83836113ca565b505050565b67016345785d8a000080341461083a576040517f08c379a0000000000000000000000000000000000000000000000000000000008152600401610831906126ad565b60405180910390fd5b6000600760003373ffffffffffffffffffffffffffffffffffffffff1673ffffffffffffffffffffffffffffffffffffffff1681526020019081526020016000206040518060400160405290816000820154815260200160018201548152505090506000816000015114156108e4576040517f08c379a00000000000000000000000000000000000000000000000000000000081526004016108db90612719565b60405180910390fd5b600081602001511461092b576040517f08c379a0000000000000000000000000000000000000000000000000000000008152600401610922906127ab565b60405180910390fd5b6003600760003373ffffffffffffffffffffffffffffffffffffffff1673ffffffffffffffffffffffffffffffffffffffff168152602001908152602001600020600101819055507f9b578d0eee4b2b0d5d49c33e40763ab7aaf58a68b563976a93b5749ea5dd3c9f336040516109a291906120f8565b60405180910390a15050565b6109bf6109b96113c2565b82611483565b6109fe576040517f08c379a00000000000000000000000000000000000000000000000000000000081526004016109f59061283d565b60405180910390fd5b610a09838383611518565b505050565b60065481565b610a2f83838360405180602001604052806000815250610f6e565b505050565b600080600760008473ffffffffffffffffffffffffffffffffffffffff1673ffffffffffffffffffffffffffffffffffffffff168152602001908152602001600020604051806040016040529081600082015481526020016001820154815250509050600081600001511415610adf576040517f08c379a0000000000000000000000000000000000000000000000000000000008152600401610ad6906128a9565b60405180910390fd5b6000816020015111610b26576040517f08c379a0000000000000000000000000000000000000000000000000000000008152600401610b1d90612915565b60405180910390fd5b8060200151915050919050565b6000806002600084815260200190815260200160002060009054906101000a900473ffffffffffffffffffffffffffffffffffffffff169050600073ffffffffffffffffffffffffffffffffffffffff168173ffffffffffffffffffffffffffffffffffffffff161415610bdc576040517f08c379a0000000000000000000000000000000000000000000000000000000008152600401610bd390612981565b60405180910390fd5b80915050919050565b60008073ffffffffffffffffffffffffffffffffffffffff168273ffffffffffffffffffffffffffffffffffffffff161415610c56576040517f08c379a0000000000000000000000000000000000000000000000000000000008152600401610c4d90612a13565b60405180910390fd5b600360008373ffffffffffffffffffffffffffffffffffffffff1673ffffffffffffffffffffffffffffffffffffffff168152602001908152602001600020549050919050565b60076020528060005260406000206000915090508060000154908060010154905082565b606060018054610cd0906124e5565b80601f0160208091040260200160405190810160405280929190818152602001828054610cfc906124e5565b8015610d495780601f10610d1e57610100808354040283529160200191610d49565b820191906000526020600020905b815481529060010190602001808311610d2c57829003601f168201915b5050505050905090565b6000600760008373ffffffffffffffffffffffffffffffffffffffff1673ffffffffffffffffffffffffffffffffffffffff168152602001908152602001600020600001549050919050565b610db1610daa6113c2565b838361177f565b5050565b67016345785d8a0000803414610e00576040517f08c379a0000000000000000000000000000000000000000000000000000000008152600401610df7906126ad565b60405180910390fd5b6000600760003373ffffffffffffffffffffffffffffffffffffffff1673ffffffffffffffffffffffffffffffffffffffff1681526020019081526020016000206000015414610e85576040517f08c379a0000000000000000000000000000000000000000000000000000000008152600401610e7c90612aa5565b60405180910390fd5b610ea333600660008154610e9890612af4565b9190508190556118ec565b600654600760003373ffffffffffffffffffffffffffffffffffffffff1673ffffffffffffffffffffffffffffffffffffffff168152602001908152602001600020600001819055506003600760003373ffffffffffffffffffffffffffffffffffffffff1673ffffffffffffffffffffffffffffffffffffffff168152602001908152602001600020600101819055507f25a027d4fd2742364c6c140aa4f98ffb075d141de8f24afb5583afb60aaba7dd33604051610f6391906120f8565b60405180910390a150565b610f7f610f796113c2565b83611483565b610fbe576040517f08c379a0000000000000000000000000000000000000000000000000000000008152600401610fb59061283d565b60405180910390fd5b610fca84848484611ac6565b50505050565b600080600760008473ffffffffffffffffffffffffffffffffffffffff1673ffffffffffffffffffffffffffffffffffffffff16815260200190815260200160002060405180604001604052908160008201548152602001600182015481525050905060008160000151141561107b576040517f08c379a000000000000000000000000000000000000000000000000000000000815260040161107290612719565b60405180910390fd5b6000816020015114915050919050565b606061109682611377565b60006110a0611b22565b905060008151116110c057604051806020016040528060008152506110eb565b806110ca84611b39565b6040516020016110db929190612b79565b6040516020818303038152906040525b915050919050565b6000600760008373ffffffffffffffffffffffffffffffffffffffff1673ffffffffffffffffffffffffffffffffffffffff16815260200190815260200160002060405180604001604052908160008201548152602001600182015481525050905060008160000151141561119d576040517f08c379a000000000000000000000000000000000000000000000000000000000815260040161119490612719565b60405180910390fd5b60008160200151116111e4576040517f08c379a00000000000000000000000000000000000000000000000000000000081526004016111db90612915565b60405180910390fd5b6001600760008473ffffffffffffffffffffffffffffffffffffffff1673ffffffffffffffffffffffffffffffffffffffff16815260200190815260200160002060010160008282546112379190612b9d565b925050819055507f91fa2c65301cc0958587aca886e4bdbe5f5ac7065b33faf07962b2e7cb00dd818260405161126d91906120f8565b60405180910390a15050565b6000600560008473ffffffffffffffffffffffffffffffffffffffff1673ffffffffffffffffffffffffffffffffffffffff16815260200190815260200160002060008373ffffffffffffffffffffffffffffffffffffffff1673ffffffffffffffffffffffffffffffffffffffff16815260200190815260200160002060009054906101000a900460ff16905092915050565b60007f01ffc9a7000000000000000000000000000000000000000000000000000000007bffffffffffffffffffffffffffffffffffffffffffffffffffffffff1916827bffffffffffffffffffffffffffffffffffffffffffffffffffffffff1916149050919050565b61138081611c9a565b6113bf576040517f08c379a00000000000000000000000000000000000000000000000000000000081526004016113b690612981565b60405180910390fd5b50565b600033905090565b816004600083815260200190815260200160002060006101000a81548173ffffffffffffffffffffffffffffffffffffffff021916908373ffffffffffffffffffffffffffffffffffffffff160217905550808273ffffffffffffffffffffffffffffffffffffffff1661143d83610b33565b73ffffffffffffffffffffffffffffffffffffffff167f8c5be1e5ebec7d5bd14f71427d1e84f3dd0314c0f7b2291e5b200ac8c7c3b92560405160405180910390a45050565b60008061148f83610b33565b90508073ffffffffffffffffffffffffffffffffffffffff168473ffffffffffffffffffffffffffffffffffffffff1614806114d157506114d08185611279565b5b8061150f57508373ffffffffffffffffffffffffffffffffffffffff166114f784610691565b73ffffffffffffffffffffffffffffffffffffffff16145b91505092915050565b8273ffffffffffffffffffffffffffffffffffffffff1661153882610b33565b73ffffffffffffffffffffffffffffffffffffffff161461158e576040517f08c379a000000000000000000000000000000000000000000000000000000000815260040161158590612c43565b60405180910390fd5b600073ffffffffffffffffffffffffffffffffffffffff168273ffffffffffffffffffffffffffffffffffffffff1614156115fe576040517f08c379a00000000000000000000000000000000000000000000000000000000081526004016115f590612cd5565b60405180910390fd5b611609838383611d06565b6116146000826113ca565b6001600360008573ffffffffffffffffffffffffffffffffffffffff1673ffffffffffffffffffffffffffffffffffffffff16815260200190815260200160002060008282546116649190612b9d565b925050819055506001600360008473ffffffffffffffffffffffffffffffffffffffff1673ffffffffffffffffffffffffffffffffffffffff16815260200190815260200160002060008282546116bb9190612cf5565b92505081905550816002600083815260200190815260200160002060006101000a81548173ffffffffffffffffffffffffffffffffffffffff021916908373ffffffffffffffffffffffffffffffffffffffff160217905550808273ffffffffffffffffffffffffffffffffffffffff168473ffffffffffffffffffffffffffffffffffffffff167fddf252ad1be2c89b69c2b068fc378daa952ba7f163c4a11628f55a4df523b3ef60405160405180910390a461177a838383611d0b565b505050565b8173ffffffffffffffffffffffffffffffffffffffff168373ffffffffffffffffffffffffffffffffffffffff1614156117ee576040517f08c379a00000000000000000000000000000000000000000000000000000000081526004016117e590612d97565b60405180910390fd5b80600560008573ffffffffffffffffffffffffffffffffffffffff1673ffffffffffffffffffffffffffffffffffffffff16815260200190815260200160002060008473ffffffffffffffffffffffffffffffffffffffff1673ffffffffffffffffffffffffffffffffffffffff16815260200190815260200160002060006101000a81548160ff0219169083151502179055508173ffffffffffffffffffffffffffffffffffffffff168373ffffffffffffffffffffffffffffffffffffffff167f17307eab39ab6107e8899845ad3d59bd9653f200f220920489ca2b5937696c31836040516118df9190611f7e565b60405180910390a3505050565b600073ffffffffffffffffffffffffffffffffffffffff168273ffffffffffffffffffffffffffffffffffffffff16141561195c576040517f08c379a000000000000000000000000000000000000000000000000000000000815260040161195390612e03565b60405180910390fd5b61196581611c9a565b156119a5576040517f08c379a000000000000000000000000000000000000000000000000000000000815260040161199c90612e6f565b60405180910390fd5b6119b160008383611d06565b6001600360008473ffffffffffffffffffffffffffffffffffffffff1673ffffffffffffffffffffffffffffffffffffffff1681526020019081526020016000206000828254611a019190612cf5565b92505081905550816002600083815260200190815260200160002060006101000a81548173ffffffffffffffffffffffffffffffffffffffff021916908373ffffffffffffffffffffffffffffffffffffffff160217905550808273ffffffffffffffffffffffffffffffffffffffff16600073ffffffffffffffffffffffffffffffffffffffff167fddf252ad1be2c89b69c2b068fc378daa952ba7f163c4a11628f55a4df523b3ef60405160405180910390a4611ac260008383611d0b565b5050565b611ad1848484611518565b611add84848484611d10565b611b1c576040517f08c379a0000000000000000000000000000000000000000000000000000000008152600401611b1390612f01565b60405180910390fd5b50505050565b606060405180602001604052806000815250905090565b60606000821415611b81576040518060400160405280600181526020017f30000000000000000000000000000000000000000000000000000000000000008152509050611c95565b600082905060005b60008214611bb3578080611b9c90612af4565b915050600a82611bac9190612f50565b9150611b89565b60008167ffffffffffffffff811115611bcf57611bce6122c8565b5b6040519080825280601f01601f191660200182016040528015611c015781602001600182028036833780820191505090505b5090505b60008514611c8e57600182611c1a9190612b9d565b9150600a85611c299190612f81565b6030611c359190612cf5565b60f81b818381518110611c4b57611c4a612fb2565b5b60200101907effffffffffffffffffffffffffffffffffffffffffffffffffffffffffffff1916908160001a905350600a85611c879190612f50565b9450611c05565b8093505050505b919050565b60008073ffffffffffffffffffffffffffffffffffffffff166002600084815260200190815260200160002060009054906101000a900473ffffffffffffffffffffffffffffffffffffffff1673ffffffffffffffffffffffffffffffffffffffff1614159050919050565b505050565b505050565b6000611d318473ffffffffffffffffffffffffffffffffffffffff16611ea7565b15611e9a578373ffffffffffffffffffffffffffffffffffffffff1663150b7a02611d5a6113c2565b8786866040518563ffffffff1660e01b8152600401611d7c9493929190613036565b602060405180830381600087803b158015611d9657600080fd5b505af1925050508015611dc757506040513d601f19601f82011682018060405250810190611dc49190613097565b60015b611e4a573d8060008114611df7576040519150601f19603f3d011682016040523d82523d6000602084013e611dfc565b606091505b50600081511415611e42576040517f08c379a0000000000000000000000000000000000000000000000000000000008152600401611e3990612f01565b60405180910390fd5b805181602001fd5b63150b7a0260e01b7bffffffffffffffffffffffffffffffffffffffffffffffffffffffff1916817bffffffffffffffffffffffffffffffffffffffffffffffffffffffff191614915050611e9f565b600190505b949350505050565b6000808273ffffffffffffffffffffffffffffffffffffffff163b119050919050565b6000604051905090565b600080fd5b600080fd5b60007fffffffff0000000000000000000000000000000000000000000000000000000082169050919050565b611f1381611ede565b8114611f1e57600080fd5b50565b600081359050611f3081611f0a565b92915050565b600060208284031215611f4c57611f4b611ed4565b5b6000611f5a84828501611f21565b91505092915050565b60008115159050919050565b611f7881611f63565b82525050565b6000602082019050611f936000830184611f6f565b92915050565b600081519050919050565b600082825260208201905092915050565b60005b83811015611fd3578082015181840152602081019050611fb8565b83811115611fe2576000848401525b50505050565b6000601f19601f8301169050919050565b600061200482611f99565b61200e8185611fa4565b935061201e818560208601611fb5565b61202781611fe8565b840191505092915050565b6000602082019050818103600083015261204c8184611ff9565b905092915050565b6000819050919050565b61206781612054565b811461207257600080fd5b50565b6000813590506120848161205e565b92915050565b6000602082840312156120a05761209f611ed4565b5b60006120ae84828501612075565b91505092915050565b600073ffffffffffffffffffffffffffffffffffffffff82169050919050565b60006120e2826120b7565b9050919050565b6120f2816120d7565b82525050565b600060208201905061210d60008301846120e9565b92915050565b61211c816120d7565b811461212757600080fd5b50565b60008135905061213981612113565b92915050565b6000806040838503121561215657612155611ed4565b5b60006121648582860161212a565b925050602061217585828601612075565b9150509250929050565b60008060006060848603121561219857612197611ed4565b5b60006121a68682870161212a565b93505060206121b78682870161212a565b92505060406121c886828701612075565b9150509250925092565b6121db81612054565b82525050565b60006020820190506121f660008301846121d2565b92915050565b60006020828403121561221257612211611ed4565b5b60006122208482850161212a565b91505092915050565b600060408201905061223e60008301856121d2565b61224b60208301846121d2565b9392505050565b61225b81611f63565b811461226657600080fd5b50565b60008135905061227881612252565b92915050565b6000806040838503121561229557612294611ed4565b5b60006122a38582860161212a565b92505060206122b485828601612269565b9150509250929050565b600080fd5b600080fd5b7f4e487b7100000000000000000000000000000000000000000000000000000000600052604160045260246000fd5b61230082611fe8565b810181811067ffffffffffffffff8211171561231f5761231e6122c8565b5b80604052505050565b6000612332611eca565b905061233e82826122f7565b919050565b600067ffffffffffffffff82111561235e5761235d6122c8565b5b61236782611fe8565b9050602081019050919050565b82818337600083830152505050565b600061239661239184612343565b612328565b9050828152602081018484840111156123b2576123b16122c3565b5b6123bd848285612374565b509392505050565b600082601f8301126123da576123d96122be565b5b81356123ea848260208601612383565b91505092915050565b6000806000806080858703121561240d5761240c611ed4565b5b600061241b8782880161212a565b945050602061242c8782880161212a565b935050604061243d87828801612075565b925050606085013567ffffffffffffffff81111561245e5761245d611ed9565b5b61246a878288016123c5565b91505092959194509250565b6000806040838503121561248d5761248c611ed4565b5b600061249b8582860161212a565b92505060206124ac8582860161212a565b9150509250929050565b7f4e487b7100000000000000000000000000000000000000000000000000000000600052602260045260246000fd5b600060028204905060018216806124fd57607f821691505b60208210811415612511576125106124b6565b5b50919050565b7f4552433732313a20617070726f76616c20746f2063757272656e74206f776e6560008201527f7200000000000000000000000000000000000000000000000000000000000000602082015250565b6000612573602183611fa4565b915061257e82612517565b604082019050919050565b600060208201905081810360008301526125a281612566565b9050919050565b7f4552433732313a20617070726f76652063616c6c6572206973206e6f7420746f60008201527f6b656e206f776e6572206e6f7220617070726f76656420666f7220616c6c0000602082015250565b6000612605603e83611fa4565b9150612610826125a9565b604082019050919050565b60006020820190508181036000830152612634816125f8565b9050919050565b7f55736572206d7573742070617920302e312065746820746f206275792061207460008201527f69636b6574210000000000000000000000000000000000000000000000000000602082015250565b6000612697602683611fa4565b91506126a28261263b565b604082019050919050565b600060208201905081810360008301526126c68161268a565b9050919050565b7f54686973207573657220686173206e6f7420626f75676874207469636b657421600082015250565b6000612703602083611fa4565b915061270e826126cd565b602082019050919050565b60006020820190508181036000830152612732816126f6565b9050919050565b7f54686973207469636b657420686173206e6f74206265656e206578706972656460008201527f2100000000000000000000000000000000000000000000000000000000000000602082015250565b6000612795602183611fa4565b91506127a082612739565b604082019050919050565b600060208201905081810360008301526127c481612788565b9050919050565b7f4552433732313a2063616c6c6572206973206e6f7420746f6b656e206f776e6560008201527f72206e6f7220617070726f766564000000000000000000000000000000000000602082015250565b6000612827602e83611fa4565b9150612832826127cb565b604082019050919050565b600060208201905081810360008301526128568161281a565b9050919050565b7f54686973207573657220686173206e6f7420626f75676874207469636b657400600082015250565b6000612893601f83611fa4565b915061289e8261285d565b602082019050919050565b600060208201905081810360008301526128c281612886565b9050919050565b7f54686973207469636b6574206861732065787069726564210000000000000000600082015250565b60006128ff601883611fa4565b915061290a826128c9565b602082019050919050565b6000602082019050818103600083015261292e816128f2565b9050919050565b7f4552433732313a20696e76616c696420746f6b656e2049440000000000000000600082015250565b600061296b601883611fa4565b915061297682612935565b602082019050919050565b6000602082019050818103600083015261299a8161295e565b9050919050565b7f4552433732313a2061646472657373207a65726f206973206e6f74206120766160008201527f6c6964206f776e65720000000000000000000000000000000000000000000000602082015250565b60006129fd602983611fa4565b9150612a08826129a1565b604082019050919050565b60006020820190508181036000830152612a2c816129f0565b9050919050565b7f5468697320757365722068617320616c726561647920626f756768742074696360008201527f6b65742100000000000000000000000000000000000000000000000000000000602082015250565b6000612a8f602483611fa4565b9150612a9a82612a33565b604082019050919050565b60006020820190508181036000830152612abe81612a82565b9050919050565b7f4e487b7100000000000000000000000000000000000000000000000000000000600052601160045260246000fd5b6000612aff82612054565b91507fffffffffffffffffffffffffffffffffffffffffffffffffffffffffffffffff821415612b3257612b31612ac5565b5b600182019050919050565b600081905092915050565b6000612b5382611f99565b612b5d8185612b3d565b9350612b6d818560208601611fb5565b80840191505092915050565b6000612b858285612b48565b9150612b918284612b48565b91508190509392505050565b6000612ba882612054565b9150612bb383612054565b925082821015612bc657612bc5612ac5565b5b828203905092915050565b7f4552433732313a207472616e736665722066726f6d20696e636f72726563742060008201527f6f776e6572000000000000000000000000000000000000000000000000000000602082015250565b6000612c2d602583611fa4565b9150612c3882612bd1565b604082019050919050565b60006020820190508181036000830152612c5c81612c20565b9050919050565b7f4552433732313a207472616e7366657220746f20746865207a65726f2061646460008201527f7265737300000000000000000000000000000000000000000000000000000000602082015250565b6000612cbf602483611fa4565b9150612cca82612c63565b604082019050919050565b60006020820190508181036000830152612cee81612cb2565b9050919050565b6000612d0082612054565b9150612d0b83612054565b9250827fffffffffffffffffffffffffffffffffffffffffffffffffffffffffffffffff03821115612d4057612d3f612ac5565b5b828201905092915050565b7f4552433732313a20617070726f766520746f2063616c6c657200000000000000600082015250565b6000612d81601983611fa4565b9150612d8c82612d4b565b602082019050919050565b60006020820190508181036000830152612db081612d74565b9050919050565b7f4552433732313a206d696e7420746f20746865207a65726f2061646472657373600082015250565b6000612ded602083611fa4565b9150612df882612db7565b602082019050919050565b60006020820190508181036000830152612e1c81612de0565b9050919050565b7f4552433732313a20746f6b656e20616c7265616479206d696e74656400000000600082015250565b6000612e59601c83611fa4565b9150612e6482612e23565b602082019050919050565b60006020820190508181036000830152612e8881612e4c565b9050919050565b7f4552433732313a207472616e7366657220746f206e6f6e20455243373231526560008201527f63656976657220696d706c656d656e7465720000000000000000000000000000602082015250565b6000612eeb603283611fa4565b9150612ef682612e8f565b604082019050919050565b60006020820190508181036000830152612f1a81612ede565b9050919050565b7f4e487b7100000000000000000000000000000000000000000000000000000000600052601260045260246000fd5b6000612f5b82612054565b9150612f6683612054565b925082612f7657612f75612f21565b5b828204905092915050565b6000612f8c82612054565b9150612f9783612054565b925082612fa757612fa6612f21565b5b828206905092915050565b7f4e487b7100000000000000000000000000000000000000000000000000000000600052603260045260246000fd5b600081519050919050565b600082825260208201905092915050565b600061300882612fe1565b6130128185612fec565b9350613022818560208601611fb5565b61302b81611fe8565b840191505092915050565b600060808201905061304b60008301876120e9565b61305860208301866120e9565b61306560408301856121d2565b81810360608301526130778184612ffd565b905095945050505050565b60008151905061309181611f0a565b92915050565b6000602082840312156130ad576130ac611ed4565b5b60006130bb84828501613082565b9150509291505056fea2646970667358221220bd26709085e7a6f31a678873e2aecca9a8e9a0ca0e581ca19404bd4d88af5ef964736f6c63430008090033",
  "linkReferences": {},
  "deployedLinkReferences": {}
}