{
  "_format": "hh-sol-artifact-1",
  "contractName": "Ticket",
  "sourceName": "contracts/Ticket.sol",
  "abi": [
    {
      "inputs": [],
      "stateMutability": "nonpayable",
      "type": "constructor"
    },
    {
      "anonymous": false,
      "inputs": [
        {
          "indexed": true,
          "internalType": "address",
          "name": "owner",
          "type": "address"
        },
        {
          "indexed": true,
          "internalType": "address",
          "name": "approved",
          "type": "address"
        },
        {
          "indexed": true,
          "internalType": "uint256",
          "name": "tokenId",
          "type": "uint256"
        }
      ],
      "name": "Approval",
      "type": "event"
    },
    {
      "anonymous": false,
      "inputs": [
        {
          "indexed": true,
          "internalType": "address",
          "name": "owner",
          "type": "address"
        },
        {
          "indexed": true,
          "internalType": "address",
          "name": "operator",
          "type": "address"
        },
        {
          "indexed": false,
          "internalType": "bool",
          "name": "approved",
          "type": "bool"
        }
      ],
      "name": "ApprovalForAll",
      "type": "event"
    },
    {
      "anonymous": false,
      "inputs": [
        {
          "indexed": false,
          "internalType": "address",
          "name": "_userAddress",
          "type": "address"
        }
      ],
      "name": "Bought",
      "type": "event"
    },
    {
      "anonymous": false,
      "inputs": [
        {
          "indexed": false,
          "internalType": "address",
          "name": "_userAddress",
          "type": "address"
        }
      ],
      "name": "ExtendedTicket",
      "type": "event"
    },
    {
      "anonymous": false,
      "inputs": [
        {
          "indexed": false,
          "internalType": "address",
          "name": "_userAddress",
          "type": "address"
        }
      ],
      "name": "SubTractedTimes",
      "type": "event"
    },
    {
      "anonymous": false,
      "inputs": [
        {
          "indexed": true,
          "internalType": "address",
          "name": "from",
          "type": "address"
        },
        {
          "indexed": true,
          "internalType": "address",
          "name": "to",
          "type": "address"
        },
        {
          "indexed": true,
          "internalType": "uint256",
          "name": "tokenId",
          "type": "uint256"
        }
      ],
      "name": "Transfer",
      "type": "event"
    },
    {
      "stateMutability": "payable",
      "type": "fallback"
    },
    {
      "inputs": [
        {
          "internalType": "address",
          "name": "to",
          "type": "address"
        },
        {
          "internalType": "uint256",
          "name": "tokenId",
          "type": "uint256"
        }
      ],
      "name": "approve",
      "outputs": [],
      "stateMutability": "nonpayable",
      "type": "function"
    },
    {
      "inputs": [
        {
          "internalType": "address",
          "name": "owner",
          "type": "address"
        }
      ],
      "name": "balanceOf",
      "outputs": [
        {
          "internalType": "uint256",
          "name": "",
          "type": "uint256"
        }
      ],
      "stateMutability": "view",
      "type": "function"
    },
    {
      "inputs": [],
      "name": "buy",
      "outputs": [],
      "stateMutability": "payable",
      "type": "function"
    },
    {
      "inputs": [],
      "name": "extendTicket",
      "outputs": [],
      "stateMutability": "payable",
      "type": "function"
    },
    {
      "inputs": [
        {
          "internalType": "uint256",
          "name": "tokenId",
          "type": "uint256"
        }
      ],
      "name": "getApproved",
      "outputs": [
        {
          "internalType": "address",
          "name": "",
          "type": "address"
        }
      ],
      "stateMutability": "view",
      "type": "function"
    },
    {
      "inputs": [
        {
          "internalType": "address",
          "name": "userAddress",
          "type": "address"
        }
      ],
      "name": "getTicketId",
      "outputs": [
        {
          "internalType": "uint256",
          "name": "",
          "type": "uint256"
        }
      ],
      "stateMutability": "view",
      "type": "function"
    },
    {
      "inputs": [
        {
          "internalType": "address",
          "name": "userAddress",
          "type": "address"
        }
      ],
      "name": "getTicketTimes",
      "outputs": [
        {
          "internalType": "uint256",
          "name": "",
          "type": "uint256"
        }
      ],
      "stateMutability": "view",
      "type": "function"
    },
    {
      "inputs": [
        {
          "internalType": "address",
          "name": "owner",
          "type": "address"
        },
        {
          "internalType": "address",
          "name": "operator",
          "type": "address"
        }
      ],
      "name": "isApprovedForAll",
      "outputs": [
        {
          "internalType": "bool",
          "name": "",
          "type": "bool"
        }
      ],
      "stateMutability": "view",
      "type": "function"
    },
    {
      "inputs": [
        {
          "internalType": "address",
          "name": "userAddress",
          "type": "address"
        }
      ],
      "name": "isExpired",
      "outputs": [
        {
          "internalType": "bool",
          "name": "",
          "type": "bool"
        }
      ],
      "stateMutability": "view",
      "type": "function"
    },
    {
      "inputs": [],
      "name": "latestedTicket",
      "outputs": [
        {
          "internalType": "uint256",
          "name": "",
          "type": "uint256"
        }
      ],
      "stateMutability": "view",
      "type": "function"
    },
    {
      "inputs": [],
      "name": "name",
      "outputs": [
        {
          "internalType": "string",
          "name": "",
          "type": "string"
        }
      ],
      "stateMutability": "view",
      "type": "function"
    },
    {
      "inputs": [
        {
          "internalType": "uint256",
          "name": "tokenId",
          "type": "uint256"
        }
      ],
      "name": "ownerOf",
      "outputs": [
        {
          "internalType": "address",
          "name": "",
          "type": "address"
        }
      ],
      "stateMutability": "view",
      "type": "function"
    },
    {
      "inputs": [
        {
          "internalType": "address",
          "name": "from",
          "type": "address"
        },
        {
          "internalType": "address",
          "name": "to",
          "type": "address"
        },
        {
          "internalType": "uint256",
          "name": "tokenId",
          "type": "uint256"
        }
      ],
      "name": "safeTransferFrom",
      "outputs": [],
      "stateMutability": "nonpayable",
      "type": "function"
    },
    {
      "inputs": [
        {
          "internalType": "address",
          "name": "from",
          "type": "address"
        },
        {
          "internalType": "address",
          "name": "to",
          "type": "address"
        },
        {
          "internalType": "uint256",
          "name": "tokenId",
          "type": "uint256"
        },
        {
          "internalType": "bytes",
          "name": "data",
          "type": "bytes"
        }
      ],
      "name": "safeTransferFrom",
      "outputs": [],
      "stateMutability": "nonpayable",
      "type": "function"
    },
    {
      "inputs": [
        {
          "internalType": "address",
          "name": "operator",
          "type": "address"
        },
        {
          "internalType": "bool",
          "name": "approved",
          "type": "bool"
        }
      ],
      "name": "setApprovalForAll",
      "outputs": [],
      "stateMutability": "nonpayable",
      "type": "function"
    },
    {
      "inputs": [
        {
          "internalType": "address",
          "name": "userAddress",
          "type": "address"
        }
      ],
      "name": "subtractTimes",
      "outputs": [],
      "stateMutability": "nonpayable",
      "type": "function"
    },
    {
      "inputs": [
        {
          "internalType": "bytes4",
          "name": "interfaceId",
          "type": "bytes4"
        }
      ],
      "name": "supportsInterface",
      "outputs": [
        {
          "internalType": "bool",
          "name": "",
          "type": "bool"
        }
      ],
      "stateMutability": "view",
      "type": "function"
    },
    {
      "inputs": [],
      "name": "symbol",
      "outputs": [
        {
          "internalType": "string",
          "name": "",
          "type": "string"
        }
      ],
      "stateMutability": "view",
      "type": "function"
    },
    {
      "inputs": [
        {
          "internalType": "address",
          "name": "",
          "type": "address"
        }
      ],
      "name": "ticketOf",
      "outputs": [
        {
          "internalType": "uint256",
          "name": "ticketId",
          "type": "uint256"
        },
        {
          "internalType": "uint256",
          "name": "times",
          "type": "uint256"
        }
      ],
      "stateMutability": "view",
      "type": "function"
    },
    {
      "inputs": [
        {
          "internalType": "uint256",
          "name": "tokenId",
          "type": "uint256"
        }
      ],
      "name": "tokenURI",
      "outputs": [
        {
          "internalType": "string",
          "name": "",
          "type": "string"
        }
      ],
      "stateMutability": "view",
      "type": "function"
    },
    {
      "inputs": [
        {
          "internalType": "address",
          "name": "from",
          "type": "address"
        },
        {
          "internalType": "address",
          "name": "to",
          "type": "address"
        },
        {
          "internalType": "uint256",
          "name": "tokenId",
          "type": "uint256"
        }
      ],
      "name": "transferFrom",
      "outputs": [],
      "stateMutability": "nonpayable",
      "type": "function"
    },
    {
      "stateMutability": "payable",
      "type": "receive"
    }
  ],
  "bytecode": "0x60806040523480156200001157600080fd5b506040518060400160405280600681526020017f5469636b657400000000000000000000000000000000000000000000000000008152506040518060400160405280600681526020017f5469636b65740000000000000000000000000000000000000000000000000000815250816000908051906020019062000096929190620000b8565b508060019080519060200190620000af929190620000b8565b505050620001cd565b828054620000c69062000197565b90600052602060002090601f016020900481019282620000ea576000855562000136565b82601f106200010557805160ff191683800117855562000136565b8280016001018555821562000136579182015b828111156200013557825182559160200191906001019062000118565b5b50905062000145919062000149565b5090565b5b80821115620001645760008160009055506001016200014a565b5090565b7f4e487b7100000000000000000000000000000000000000000000000000000000600052602260045260246000fd5b60006002820490506001821680620001b057607f821691505b60208210811415620001c757620001c662000168565b5b50919050565b61327580620001dd6000396000f3fe60806040526004361061012e5760003560e01c806370a08231116100ab578063a6f2ae3a1161006f578063a6f2ae3a14610490578063b88d4fde1461049a578063ba2eb541146104c3578063c87b56dd14610500578063d848f9911461053d578063e985e9c51461056657610174565b806370a0823114610384578063903fe15f146103c157806395d89b41146103ff57806395ef1aeb1461042a578063a22cb4651461046757610174565b806323b872dd116100f257806323b872dd1461028d57806328b8b4c8146102b657806342842e0e146102e157806360364b691461030a5780636352211e1461034757610174565b806301ffc9a7146101b557806306fdde03146101f2578063081812fc1461021d578063095ea7b31461025a578063111e06fa1461028357610174565b36610174576101726040518060400160405280600781526020017f7265636569766500000000000000000000000000000000000000000000000000815250346105a3565b005b6101b36040518060400160405280600881526020017f66616c6c6261636b000000000000000000000000000000000000000000000000815250346105a3565b005b3480156101c157600080fd5b506101dc60048036038101906101d79190612081565b61063f565b6040516101e991906120c9565b60405180910390f35b3480156101fe57600080fd5b50610207610721565b604051610214919061217d565b60405180910390f35b34801561022957600080fd5b50610244600480360381019061023f91906121d5565b6107b3565b6040516102519190612243565b60405180910390f35b34801561026657600080fd5b50610281600480360381019061027c919061228a565b6107f9565b005b61028b610911565b005b34801561029957600080fd5b506102b460048036038101906102af91906122ca565b610ad0565b005b3480156102c257600080fd5b506102cb610b30565b6040516102d8919061232c565b60405180910390f35b3480156102ed57600080fd5b50610308600480360381019061030391906122ca565b610b36565b005b34801561031657600080fd5b50610331600480360381019061032c9190612347565b610b56565b60405161033e919061232c565b60405180910390f35b34801561035357600080fd5b5061036e600480360381019061036991906121d5565b610c55565b60405161037b9190612243565b60405180910390f35b34801561039057600080fd5b506103ab60048036038101906103a69190612347565b610d07565b6040516103b8919061232c565b60405180910390f35b3480156103cd57600080fd5b506103e860048036038101906103e39190612347565b610dbf565b6040516103f6929190612374565b60405180910390f35b34801561040b57600080fd5b50610414610de3565b604051610421919061217d565b60405180910390f35b34801561043657600080fd5b50610451600480360381019061044c9190612347565b610e75565b60405161045e919061232c565b60405180910390f35b34801561047357600080fd5b5061048e600480360381019061048991906123c9565b610ec1565b005b610498610ed7565b005b3480156104a657600080fd5b506104c160048036038101906104bc919061253e565b611090565b005b3480156104cf57600080fd5b506104ea60048036038101906104e59190612347565b6110f2565b6040516104f791906120c9565b60405180910390f35b34801561050c57600080fd5b50610527600480360381019061052291906121d5565b6111ad565b604051610534919061217d565b60405180910390f35b34801561054957600080fd5b50610564600480360381019061055f9190612347565b611215565b005b34801561057257600080fd5b5061058d600480360381019061058891906125c1565b61139b565b60405161059a91906120c9565b60405180910390f35b61063b82826040516024016105b9929190612601565b6040516020818303038152906040527fb60e72cc000000000000000000000000000000000000000000000000000000007bffffffffffffffffffffffffffffffffffffffffffffffffffffffff19166020820180517bffffffffffffffffffffffffffffffffffffffffffffffffffffffff838183161783525050505061142f565b5050565b60007f80ac58cd000000000000000000000000000000000000000000000000000000007bffffffffffffffffffffffffffffffffffffffffffffffffffffffff1916827bffffffffffffffffffffffffffffffffffffffffffffffffffffffff1916148061070a57507f5b5e139f000000000000000000000000000000000000000000000000000000007bffffffffffffffffffffffffffffffffffffffffffffffffffffffff1916827bffffffffffffffffffffffffffffffffffffffffffffffffffffffff1916145b8061071a575061071982611458565b5b9050919050565b60606000805461073090612660565b80601f016020809104026020016040519081016040528092919081815260200182805461075c90612660565b80156107a95780601f1061077e576101008083540402835291602001916107a9565b820191906000526020600020905b81548152906001019060200180831161078c57829003601f168201915b5050505050905090565b60006107be826114c2565b6004600083815260200190815260200160002060009054906101000a900473ffffffffffffffffffffffffffffffffffffffff169050919050565b600061080482610c55565b90508073ffffffffffffffffffffffffffffffffffffffff168373ffffffffffffffffffffffffffffffffffffffff161415610875576040517f08c379a000000000000000000000000000000000000000000000000000000000815260040161086c90612704565b60405180910390fd5b8073ffffffffffffffffffffffffffffffffffffffff1661089461150d565b73ffffffffffffffffffffffffffffffffffffffff1614806108c357506108c2816108bd61150d565b61139b565b5b610902576040517f08c379a00000000000000000000000000000000000000000000000000000000081526004016108f990612796565b60405180910390fd5b61090c8383611515565b505050565b67016345785d8a000080341461095c576040517f08c379a000000000000000000000000000000000000000000000000000000000815260040161095390612828565b60405180910390fd5b6000600760003373ffffffffffffffffffffffffffffffffffffffff1673ffffffffffffffffffffffffffffffffffffffff168152602001908152602001600020604051806040016040529081600082015481526020016001820154815250509050600081600001511415610a06576040517f08c379a00000000000000000000000000000000000000000000000000000000081526004016109fd90612894565b60405180910390fd5b6000816020015114610a4d576040517f08c379a0000000000000000000000000000000000000000000000000000000008152600401610a4490612926565b60405180910390fd5b6003600760003373ffffffffffffffffffffffffffffffffffffffff1673ffffffffffffffffffffffffffffffffffffffff168152602001908152602001600020600101819055507f9b578d0eee4b2b0d5d49c33e40763ab7aaf58a68b563976a93b5749ea5dd3c9f33604051610ac49190612243565b60405180910390a15050565b610ae1610adb61150d565b826115ce565b610b20576040517f08c379a0000000000000000000000000000000000000000000000000000000008152600401610b17906129b8565b60405180910390fd5b610b2b838383611663565b505050565b60065481565b610b5183838360405180602001604052806000815250611090565b505050565b600080600760008473ffffffffffffffffffffffffffffffffffffffff1673ffffffffffffffffffffffffffffffffffffffff168152602001908152602001600020604051806040016040529081600082015481526020016001820154815250509050600081600001511415610c01576040517f08c379a0000000000000000000000000000000000000000000000000000000008152600401610bf890612a24565b60405180910390fd5b6000816020015111610c48576040517f08c379a0000000000000000000000000000000000000000000000000000000008152600401610c3f90612a90565b60405180910390fd5b8060200151915050919050565b6000806002600084815260200190815260200160002060009054906101000a900473ffffffffffffffffffffffffffffffffffffffff169050600073ffffffffffffffffffffffffffffffffffffffff168173ffffffffffffffffffffffffffffffffffffffff161415610cfe576040517f08c379a0000000000000000000000000000000000000000000000000000000008152600401610cf590612afc565b60405180910390fd5b80915050919050565b60008073ffffffffffffffffffffffffffffffffffffffff168273ffffffffffffffffffffffffffffffffffffffff161415610d78576040517f08c379a0000000000000000000000000000000000000000000000000000000008152600401610d6f90612b8e565b60405180910390fd5b600360008373ffffffffffffffffffffffffffffffffffffffff1673ffffffffffffffffffffffffffffffffffffffff168152602001908152602001600020549050919050565b60076020528060005260406000206000915090508060000154908060010154905082565b606060018054610df290612660565b80601f0160208091040260200160405190810160405280929190818152602001828054610e1e90612660565b8015610e6b5780601f10610e4057610100808354040283529160200191610e6b565b820191906000526020600020905b815481529060010190602001808311610e4e57829003601f168201915b5050505050905090565b6000600760008373ffffffffffffffffffffffffffffffffffffffff1673ffffffffffffffffffffffffffffffffffffffff168152602001908152602001600020600001549050919050565b610ed3610ecc61150d565b83836118ca565b5050565b67016345785d8a0000803414610f22576040517f08c379a0000000000000000000000000000000000000000000000000000000008152600401610f1990612828565b60405180910390fd5b6000600760003373ffffffffffffffffffffffffffffffffffffffff1673ffffffffffffffffffffffffffffffffffffffff1681526020019081526020016000206000015414610fa7576040517f08c379a0000000000000000000000000000000000000000000000000000000008152600401610f9e90612c20565b60405180910390fd5b610fc533600660008154610fba90612c6f565b919050819055611a37565b600654600760003373ffffffffffffffffffffffffffffffffffffffff1673ffffffffffffffffffffffffffffffffffffffff168152602001908152602001600020600001819055506003600760003373ffffffffffffffffffffffffffffffffffffffff1673ffffffffffffffffffffffffffffffffffffffff168152602001908152602001600020600101819055507f25a027d4fd2742364c6c140aa4f98ffb075d141de8f24afb5583afb60aaba7dd336040516110859190612243565b60405180910390a150565b6110a161109b61150d565b836115ce565b6110e0576040517f08c379a00000000000000000000000000000000000000000000000000000000081526004016110d7906129b8565b60405180910390fd5b6110ec84848484611c11565b50505050565b600080600760008473ffffffffffffffffffffffffffffffffffffffff1673ffffffffffffffffffffffffffffffffffffffff16815260200190815260200160002060405180604001604052908160008201548152602001600182015481525050905060008160000151141561119d576040517f08c379a000000000000000000000000000000000000000000000000000000000815260040161119490612894565b60405180910390fd5b6000816020015114915050919050565b60606111b8826114c2565b60006111c2611c6d565b905060008151116111e2576040518060200160405280600081525061120d565b806111ec84611c84565b6040516020016111fd929190612cf4565b6040516020818303038152906040525b915050919050565b6000600760008373ffffffffffffffffffffffffffffffffffffffff1673ffffffffffffffffffffffffffffffffffffffff1681526020019081526020016000206040518060400160405290816000820154815260200160018201548152505090506000816000015114156112bf576040517f08c379a00000000000000000000000000000000000000000000000000000000081526004016112b690612894565b60405180910390fd5b6000816020015111611306576040517f08c379a00000000000000000000000000000000000000000000000000000000081526004016112fd90612a90565b60405180910390fd5b6001600760008473ffffffffffffffffffffffffffffffffffffffff1673ffffffffffffffffffffffffffffffffffffffff16815260200190815260200160002060010160008282546113599190612d18565b925050819055507f91fa2c65301cc0958587aca886e4bdbe5f5ac7065b33faf07962b2e7cb00dd818260405161138f9190612243565b60405180910390a15050565b6000600560008473ffffffffffffffffffffffffffffffffffffffff1673ffffffffffffffffffffffffffffffffffffffff16815260200190815260200160002060008373ffffffffffffffffffffffffffffffffffffffff1673ffffffffffffffffffffffffffffffffffffffff16815260200190815260200160002060009054906101000a900460ff16905092915050565b60008151905060006a636f6e736f6c652e6c6f679050602083016000808483855afa5050505050565b60007f01ffc9a7000000000000000000000000000000000000000000000000000000007bffffffffffffffffffffffffffffffffffffffffffffffffffffffff1916827bffffffffffffffffffffffffffffffffffffffffffffffffffffffff1916149050919050565b6114cb81611de5565b61150a576040517f08c379a000000000000000000000000000000000000000000000000000000000815260040161150190612afc565b60405180910390fd5b50565b600033905090565b816004600083815260200190815260200160002060006101000a81548173ffffffffffffffffffffffffffffffffffffffff021916908373ffffffffffffffffffffffffffffffffffffffff160217905550808273ffffffffffffffffffffffffffffffffffffffff1661158883610c55565b73ffffffffffffffffffffffffffffffffffffffff167f8c5be1e5ebec7d5bd14f71427d1e84f3dd0314c0f7b2291e5b200ac8c7c3b92560405160405180910390a45050565b6000806115da83610c55565b90508073ffffffffffffffffffffffffffffffffffffffff168473ffffffffffffffffffffffffffffffffffffffff16148061161c575061161b818561139b565b5b8061165a57508373ffffffffffffffffffffffffffffffffffffffff16611642846107b3565b73ffffffffffffffffffffffffffffffffffffffff16145b91505092915050565b8273ffffffffffffffffffffffffffffffffffffffff1661168382610c55565b73ffffffffffffffffffffffffffffffffffffffff16146116d9576040517f08c379a00000000000000000000000000000000000000000000000000000000081526004016116d090612dbe565b60405180910390fd5b600073ffffffffffffffffffffffffffffffffffffffff168273ffffffffffffffffffffffffffffffffffffffff161415611749576040517f08c379a000000000000000000000000000000000000000000000000000000000815260040161174090612e50565b60405180910390fd5b611754838383611e51565b61175f600082611515565b6001600360008573ffffffffffffffffffffffffffffffffffffffff1673ffffffffffffffffffffffffffffffffffffffff16815260200190815260200160002060008282546117af9190612d18565b925050819055506001600360008473ffffffffffffffffffffffffffffffffffffffff1673ffffffffffffffffffffffffffffffffffffffff16815260200190815260200160002060008282546118069190612e70565b92505081905550816002600083815260200190815260200160002060006101000a81548173ffffffffffffffffffffffffffffffffffffffff021916908373ffffffffffffffffffffffffffffffffffffffff160217905550808273ffffffffffffffffffffffffffffffffffffffff168473ffffffffffffffffffffffffffffffffffffffff167fddf252ad1be2c89b69c2b068fc378daa952ba7f163c4a11628f55a4df523b3ef60405160405180910390a46118c5838383611e56565b505050565b8173ffffffffffffffffffffffffffffffffffffffff168373ffffffffffffffffffffffffffffffffffffffff161415611939576040517f08c379a000000000000000000000000000000000000000000000000000000000815260040161193090612f12565b60405180910390fd5b80600560008573ffffffffffffffffffffffffffffffffffffffff1673ffffffffffffffffffffffffffffffffffffffff16815260200190815260200160002060008473ffffffffffffffffffffffffffffffffffffffff1673ffffffffffffffffffffffffffffffffffffffff16815260200190815260200160002060006101000a81548160ff0219169083151502179055508173ffffffffffffffffffffffffffffffffffffffff168373ffffffffffffffffffffffffffffffffffffffff167f17307eab39ab6107e8899845ad3d59bd9653f200f220920489ca2b5937696c3183604051611a2a91906120c9565b60405180910390a3505050565b600073ffffffffffffffffffffffffffffffffffffffff168273ffffffffffffffffffffffffffffffffffffffff161415611aa7576040517f08c379a0000000000000000000000000000000000000000000000000000000008152600401611a9e90612f7e565b60405180910390fd5b611ab081611de5565b15611af0576040517f08c379a0000000000000000000000000000000000000000000000000000000008152600401611ae790612fea565b60405180910390fd5b611afc60008383611e51565b6001600360008473ffffffffffffffffffffffffffffffffffffffff1673ffffffffffffffffffffffffffffffffffffffff1681526020019081526020016000206000828254611b4c9190612e70565b92505081905550816002600083815260200190815260200160002060006101000a81548173ffffffffffffffffffffffffffffffffffffffff021916908373ffffffffffffffffffffffffffffffffffffffff160217905550808273ffffffffffffffffffffffffffffffffffffffff16600073ffffffffffffffffffffffffffffffffffffffff167fddf252ad1be2c89b69c2b068fc378daa952ba7f163c4a11628f55a4df523b3ef60405160405180910390a4611c0d60008383611e56565b5050565b611c1c848484611663565b611c2884848484611e5b565b611c67576040517f08c379a0000000000000000000000000000000000000000000000000000000008152600401611c5e9061307c565b60405180910390fd5b50505050565b606060405180602001604052806000815250905090565b60606000821415611ccc576040518060400160405280600181526020017f30000000000000000000000000000000000000000000000000000000000000008152509050611de0565b600082905060005b60008214611cfe578080611ce790612c6f565b915050600a82611cf791906130cb565b9150611cd4565b60008167ffffffffffffffff811115611d1a57611d19612413565b5b6040519080825280601f01601f191660200182016040528015611d4c5781602001600182028036833780820191505090505b5090505b60008514611dd957600182611d659190612d18565b9150600a85611d7491906130fc565b6030611d809190612e70565b60f81b818381518110611d9657611d9561312d565b5b60200101907effffffffffffffffffffffffffffffffffffffffffffffffffffffffffffff1916908160001a905350600a85611dd291906130cb565b9450611d50565b8093505050505b919050565b60008073ffffffffffffffffffffffffffffffffffffffff166002600084815260200190815260200160002060009054906101000a900473ffffffffffffffffffffffffffffffffffffffff1673ffffffffffffffffffffffffffffffffffffffff1614159050919050565b505050565b505050565b6000611e7c8473ffffffffffffffffffffffffffffffffffffffff16611ff2565b15611fe5578373ffffffffffffffffffffffffffffffffffffffff1663150b7a02611ea561150d565b8786866040518563ffffffff1660e01b8152600401611ec794939291906131b1565b602060405180830381600087803b158015611ee157600080fd5b505af1925050508015611f1257506040513d601f19601f82011682018060405250810190611f0f9190613212565b60015b611f95573d8060008114611f42576040519150601f19603f3d011682016040523d82523d6000602084013e611f47565b606091505b50600081511415611f8d576040517f08c379a0000000000000000000000000000000000000000000000000000000008152600401611f849061307c565b60405180910390fd5b805181602001fd5b63150b7a0260e01b7bffffffffffffffffffffffffffffffffffffffffffffffffffffffff1916817bffffffffffffffffffffffffffffffffffffffffffffffffffffffff191614915050611fea565b600190505b949350505050565b6000808273ffffffffffffffffffffffffffffffffffffffff163b119050919050565b6000604051905090565b600080fd5b600080fd5b60007fffffffff0000000000000000000000000000000000000000000000000000000082169050919050565b61205e81612029565b811461206957600080fd5b50565b60008135905061207b81612055565b92915050565b6000602082840312156120975761209661201f565b5b60006120a58482850161206c565b91505092915050565b60008115159050919050565b6120c3816120ae565b82525050565b60006020820190506120de60008301846120ba565b92915050565b600081519050919050565b600082825260208201905092915050565b60005b8381101561211e578082015181840152602081019050612103565b8381111561212d576000848401525b50505050565b6000601f19601f8301169050919050565b600061214f826120e4565b61215981856120ef565b9350612169818560208601612100565b61217281612133565b840191505092915050565b600060208201905081810360008301526121978184612144565b905092915050565b6000819050919050565b6121b28161219f565b81146121bd57600080fd5b50565b6000813590506121cf816121a9565b92915050565b6000602082840312156121eb576121ea61201f565b5b60006121f9848285016121c0565b91505092915050565b600073ffffffffffffffffffffffffffffffffffffffff82169050919050565b600061222d82612202565b9050919050565b61223d81612222565b82525050565b60006020820190506122586000830184612234565b92915050565b61226781612222565b811461227257600080fd5b50565b6000813590506122848161225e565b92915050565b600080604083850312156122a1576122a061201f565b5b60006122af85828601612275565b92505060206122c0858286016121c0565b9150509250929050565b6000806000606084860312156122e3576122e261201f565b5b60006122f186828701612275565b935050602061230286828701612275565b9250506040612313868287016121c0565b9150509250925092565b6123268161219f565b82525050565b6000602082019050612341600083018461231d565b92915050565b60006020828403121561235d5761235c61201f565b5b600061236b84828501612275565b91505092915050565b6000604082019050612389600083018561231d565b612396602083018461231d565b9392505050565b6123a6816120ae565b81146123b157600080fd5b50565b6000813590506123c38161239d565b92915050565b600080604083850312156123e0576123df61201f565b5b60006123ee85828601612275565b92505060206123ff858286016123b4565b9150509250929050565b600080fd5b600080fd5b7f4e487b7100000000000000000000000000000000000000000000000000000000600052604160045260246000fd5b61244b82612133565b810181811067ffffffffffffffff8211171561246a57612469612413565b5b80604052505050565b600061247d612015565b90506124898282612442565b919050565b600067ffffffffffffffff8211156124a9576124a8612413565b5b6124b282612133565b9050602081019050919050565b82818337600083830152505050565b60006124e16124dc8461248e565b612473565b9050828152602081018484840111156124fd576124fc61240e565b5b6125088482856124bf565b509392505050565b600082601f83011261252557612524612409565b5b81356125358482602086016124ce565b91505092915050565b600080600080608085870312156125585761255761201f565b5b600061256687828801612275565b945050602061257787828801612275565b9350506040612588878288016121c0565b925050606085013567ffffffffffffffff8111156125a9576125a8612024565b5b6125b587828801612510565b91505092959194509250565b600080604083850312156125d8576125d761201f565b5b60006125e685828601612275565b92505060206125f785828601612275565b9150509250929050565b6000604082019050818103600083015261261b8185612144565b905061262a602083018461231d565b9392505050565b7f4e487b7100000000000000000000000000000000000000000000000000000000600052602260045260246000fd5b6000600282049050600182168061267857607f821691505b6020821081141561268c5761268b612631565b5b50919050565b7f4552433732313a20617070726f76616c20746f2063757272656e74206f776e6560008201527f7200000000000000000000000000000000000000000000000000000000000000602082015250565b60006126ee6021836120ef565b91506126f982612692565b604082019050919050565b6000602082019050818103600083015261271d816126e1565b9050919050565b7f4552433732313a20617070726f76652063616c6c6572206973206e6f7420746f60008201527f6b656e206f776e6572206e6f7220617070726f76656420666f7220616c6c0000602082015250565b6000612780603e836120ef565b915061278b82612724565b604082019050919050565b600060208201905081810360008301526127af81612773565b9050919050565b7f55736572206d7573742070617920302e312065746820746f206275792061207460008201527f69636b6574210000000000000000000000000000000000000000000000000000602082015250565b60006128126026836120ef565b915061281d826127b6565b604082019050919050565b6000602082019050818103600083015261284181612805565b9050919050565b7f54686973207573657220686173206e6f7420626f75676874207469636b657421600082015250565b600061287e6020836120ef565b915061288982612848565b602082019050919050565b600060208201905081810360008301526128ad81612871565b9050919050565b7f54686973207469636b657420686173206e6f74206265656e206578706972656460008201527f2100000000000000000000000000000000000000000000000000000000000000602082015250565b60006129106021836120ef565b915061291b826128b4565b604082019050919050565b6000602082019050818103600083015261293f81612903565b9050919050565b7f4552433732313a2063616c6c6572206973206e6f7420746f6b656e206f776e6560008201527f72206e6f7220617070726f766564000000000000000000000000000000000000602082015250565b60006129a2602e836120ef565b91506129ad82612946565b604082019050919050565b600060208201905081810360008301526129d181612995565b9050919050565b7f54686973207573657220686173206e6f7420626f75676874207469636b657400600082015250565b6000612a0e601f836120ef565b9150612a19826129d8565b602082019050919050565b60006020820190508181036000830152612a3d81612a01565b9050919050565b7f54686973207469636b6574206861732065787069726564210000000000000000600082015250565b6000612a7a6018836120ef565b9150612a8582612a44565b602082019050919050565b60006020820190508181036000830152612aa981612a6d565b9050919050565b7f4552433732313a20696e76616c696420746f6b656e2049440000000000000000600082015250565b6000612ae66018836120ef565b9150612af182612ab0565b602082019050919050565b60006020820190508181036000830152612b1581612ad9565b9050919050565b7f4552433732313a2061646472657373207a65726f206973206e6f74206120766160008201527f6c6964206f776e65720000000000000000000000000000000000000000000000602082015250565b6000612b786029836120ef565b9150612b8382612b1c565b604082019050919050565b60006020820190508181036000830152612ba781612b6b565b9050919050565b7f5468697320757365722068617320616c726561647920626f756768742074696360008201527f6b65742100000000000000000000000000000000000000000000000000000000602082015250565b6000612c0a6024836120ef565b9150612c1582612bae565b604082019050919050565b60006020820190508181036000830152612c3981612bfd565b9050919050565b7f4e487b7100000000000000000000000000000000000000000000000000000000600052601160045260246000fd5b6000612c7a8261219f565b91507fffffffffffffffffffffffffffffffffffffffffffffffffffffffffffffffff821415612cad57612cac612c40565b5b600182019050919050565b600081905092915050565b6000612cce826120e4565b612cd88185612cb8565b9350612ce8818560208601612100565b80840191505092915050565b6000612d008285612cc3565b9150612d0c8284612cc3565b91508190509392505050565b6000612d238261219f565b9150612d2e8361219f565b925082821015612d4157612d40612c40565b5b828203905092915050565b7f4552433732313a207472616e736665722066726f6d20696e636f72726563742060008201527f6f776e6572000000000000000000000000000000000000000000000000000000602082015250565b6000612da86025836120ef565b9150612db382612d4c565b604082019050919050565b60006020820190508181036000830152612dd781612d9b565b9050919050565b7f4552433732313a207472616e7366657220746f20746865207a65726f2061646460008201527f7265737300000000000000000000000000000000000000000000000000000000602082015250565b6000612e3a6024836120ef565b9150612e4582612dde565b604082019050919050565b60006020820190508181036000830152612e6981612e2d565b9050919050565b6000612e7b8261219f565b9150612e868361219f565b9250827fffffffffffffffffffffffffffffffffffffffffffffffffffffffffffffffff03821115612ebb57612eba612c40565b5b828201905092915050565b7f4552433732313a20617070726f766520746f2063616c6c657200000000000000600082015250565b6000612efc6019836120ef565b9150612f0782612ec6565b602082019050919050565b60006020820190508181036000830152612f2b81612eef565b9050919050565b7f4552433732313a206d696e7420746f20746865207a65726f2061646472657373600082015250565b6000612f686020836120ef565b9150612f7382612f32565b602082019050919050565b60006020820190508181036000830152612f9781612f5b565b9050919050565b7f4552433732313a20746f6b656e20616c7265616479206d696e74656400000000600082015250565b6000612fd4601c836120ef565b9150612fdf82612f9e565b602082019050919050565b6000602082019050818103600083015261300381612fc7565b9050919050565b7f4552433732313a207472616e7366657220746f206e6f6e20455243373231526560008201527f63656976657220696d706c656d656e7465720000000000000000000000000000602082015250565b60006130666032836120ef565b91506130718261300a565b604082019050919050565b6000602082019050818103600083015261309581613059565b9050919050565b7f4e487b7100000000000000000000000000000000000000000000000000000000600052601260045260246000fd5b60006130d68261219f565b91506130e18361219f565b9250826130f1576130f061309c565b5b828204905092915050565b60006131078261219f565b91506131128361219f565b9250826131225761312161309c565b5b828206905092915050565b7f4e487b7100000000000000000000000000000000000000000000000000000000600052603260045260246000fd5b600081519050919050565b600082825260208201905092915050565b60006131838261315c565b61318d8185613167565b935061319d818560208601612100565b6131a681612133565b840191505092915050565b60006080820190506131c66000830187612234565b6131d36020830186612234565b6131e0604083018561231d565b81810360608301526131f28184613178565b905095945050505050565b60008151905061320c81612055565b92915050565b6000602082840312156132285761322761201f565b5b6000613236848285016131fd565b9150509291505056fea264697066735822122044544af562a474e00e3340591f35a118f30c40178fdb0bb97c45ff953a3f065064736f6c63430008090033",
  "linkReferences": {},
  "deployedLinkReferences": {}
}