{
  "_format": "hh-sol-artifact-1",
  "contractName": "Cash",
  "sourceName": "contracts/Cash.sol",
  "abi": [
    {
      "inputs": [],
      "stateMutability": "nonpayable",
      "type": "constructor"
    },
    {
      "anonymous": false,
      "inputs": [
        {
          "indexed": true,
          "internalType": "address",
          "name": "owner",
          "type": "address"
        },
        {
          "indexed": true,
          "internalType": "address",
          "name": "spender",
          "type": "address"
        },
        {
          "indexed": false,
          "internalType": "uint256",
          "name": "value",
          "type": "uint256"
        }
      ],
      "name": "Approval",
      "type": "event"
    },
    {
      "anonymous": false,
      "inputs": [
        {
          "indexed": false,
          "internalType": "uint256",
          "name": "_amount",
          "type": "uint256"
        }
      ],
      "name": "Bought",
      "type": "event"
    },
    {
      "anonymous": false,
      "inputs": [
        {
          "indexed": true,
          "internalType": "address",
          "name": "from",
          "type": "address"
        },
        {
          "indexed": true,
          "internalType": "address",
          "name": "to",
          "type": "address"
        },
        {
          "indexed": false,
          "internalType": "uint256",
          "name": "value",
          "type": "uint256"
        }
      ],
      "name": "Transfer",
      "type": "event"
    },
    {
      "anonymous": false,
      "inputs": [
        {
          "indexed": false,
          "internalType": "uint256",
          "name": "_amount",
          "type": "uint256"
        }
      ],
      "name": "WithDrawn",
      "type": "event"
    },
    {
      "inputs": [
        {
          "internalType": "address",
          "name": "owner",
          "type": "address"
        },
        {
          "internalType": "address",
          "name": "spender",
          "type": "address"
        }
      ],
      "name": "allowance",
      "outputs": [
        {
          "internalType": "uint256",
          "name": "",
          "type": "uint256"
        }
      ],
      "stateMutability": "view",
      "type": "function"
    },
    {
      "inputs": [
        {
          "internalType": "address",
          "name": "spender",
          "type": "address"
        },
        {
          "internalType": "uint256",
          "name": "amount",
          "type": "uint256"
        }
      ],
      "name": "approve",
      "outputs": [
        {
          "internalType": "bool",
          "name": "",
          "type": "bool"
        }
      ],
      "stateMutability": "nonpayable",
      "type": "function"
    },
    {
      "inputs": [
        {
          "internalType": "address",
          "name": "account",
          "type": "address"
        }
      ],
      "name": "balanceOf",
      "outputs": [
        {
          "internalType": "uint256",
          "name": "",
          "type": "uint256"
        }
      ],
      "stateMutability": "view",
      "type": "function"
    },
    {
      "inputs": [],
      "name": "buy",
      "outputs": [],
      "stateMutability": "payable",
      "type": "function"
    },
    {
      "inputs": [],
      "name": "decimals",
      "outputs": [
        {
          "internalType": "uint8",
          "name": "",
          "type": "uint8"
        }
      ],
      "stateMutability": "view",
      "type": "function"
    },
    {
      "inputs": [
        {
          "internalType": "address",
          "name": "spender",
          "type": "address"
        },
        {
          "internalType": "uint256",
          "name": "subtractedValue",
          "type": "uint256"
        }
      ],
      "name": "decreaseAllowance",
      "outputs": [
        {
          "internalType": "bool",
          "name": "",
          "type": "bool"
        }
      ],
      "stateMutability": "nonpayable",
      "type": "function"
    },
    {
      "inputs": [
        {
          "internalType": "address",
          "name": "spender",
          "type": "address"
        },
        {
          "internalType": "uint256",
          "name": "addedValue",
          "type": "uint256"
        }
      ],
      "name": "increaseAllowance",
      "outputs": [
        {
          "internalType": "bool",
          "name": "",
          "type": "bool"
        }
      ],
      "stateMutability": "nonpayable",
      "type": "function"
    },
    {
      "inputs": [],
      "name": "name",
      "outputs": [
        {
          "internalType": "string",
          "name": "",
          "type": "string"
        }
      ],
      "stateMutability": "view",
      "type": "function"
    },
    {
      "inputs": [],
      "name": "symbol",
      "outputs": [
        {
          "internalType": "string",
          "name": "",
          "type": "string"
        }
      ],
      "stateMutability": "view",
      "type": "function"
    },
    {
      "inputs": [],
      "name": "totalSupply",
      "outputs": [
        {
          "internalType": "uint256",
          "name": "",
          "type": "uint256"
        }
      ],
      "stateMutability": "view",
      "type": "function"
    },
    {
      "inputs": [
        {
          "internalType": "address",
          "name": "to",
          "type": "address"
        },
        {
          "internalType": "uint256",
          "name": "amount",
          "type": "uint256"
        }
      ],
      "name": "transfer",
      "outputs": [
        {
          "internalType": "bool",
          "name": "",
          "type": "bool"
        }
      ],
      "stateMutability": "nonpayable",
      "type": "function"
    },
    {
      "inputs": [
        {
          "internalType": "address",
          "name": "from",
          "type": "address"
        },
        {
          "internalType": "address",
          "name": "to",
          "type": "address"
        },
        {
          "internalType": "uint256",
          "name": "amount",
          "type": "uint256"
        }
      ],
      "name": "transferFrom",
      "outputs": [
        {
          "internalType": "bool",
          "name": "",
          "type": "bool"
        }
      ],
      "stateMutability": "nonpayable",
      "type": "function"
    },
    {
      "inputs": [
        {
          "internalType": "uint256",
          "name": "amount",
          "type": "uint256"
        }
      ],
      "name": "withdraw",
      "outputs": [],
      "stateMutability": "payable",
      "type": "function"
    }
  ],
  "bytecode": "0x60806040523480156200001157600080fd5b506040518060400160405280600481526020017f43617368000000000000000000000000000000000000000000000000000000008152506040518060400160405280600181526020017f4300000000000000000000000000000000000000000000000000000000000000815250816003908051906020019062000096929190620000b8565b508060049080519060200190620000af929190620000b8565b505050620001cd565b828054620000c69062000197565b90600052602060002090601f016020900481019282620000ea576000855562000136565b82601f106200010557805160ff191683800117855562000136565b8280016001018555821562000136579182015b828111156200013557825182559160200191906001019062000118565b5b50905062000145919062000149565b5090565b5b80821115620001645760008160009055506001016200014a565b5090565b7f4e487b7100000000000000000000000000000000000000000000000000000000600052602260045260246000fd5b60006002820490506001821680620001b057607f821691505b60208210811415620001c757620001c662000168565b5b50919050565b611bee80620001dd6000396000f3fe6080604052600436106100c25760003560e01c8063395093511161007f578063a457c2d711610059578063a457c2d714610283578063a6f2ae3a146102c0578063a9059cbb146102ca578063dd62ed3e14610307576100c2565b806339509351146101de57806370a082311461021b57806395d89b4114610258576100c2565b806306fdde03146100c7578063095ea7b3146100f257806318160ddd1461012f57806323b872dd1461015a5780632e1a7d4d14610197578063313ce567146101b3575b600080fd5b3480156100d357600080fd5b506100dc610344565b6040516100e991906110df565b60405180910390f35b3480156100fe57600080fd5b506101196004803603810190610114919061119a565b6103d6565b60405161012691906111f5565b60405180910390f35b34801561013b57600080fd5b506101446103f9565b604051610151919061121f565b60405180910390f35b34801561016657600080fd5b50610181600480360381019061017c919061123a565b610403565b60405161018e91906111f5565b60405180910390f35b6101b160048036038101906101ac919061128d565b610432565b005b3480156101bf57600080fd5b506101c8610581565b6040516101d591906112d6565b60405180910390f35b3480156101ea57600080fd5b506102056004803603810190610200919061119a565b61058a565b60405161021291906111f5565b60405180910390f35b34801561022757600080fd5b50610242600480360381019061023d91906112f1565b6105c1565b60405161024f919061121f565b60405180910390f35b34801561026457600080fd5b5061026d610609565b60405161027a91906110df565b60405180910390f35b34801561028f57600080fd5b506102aa60048036038101906102a5919061119a565b61069b565b6040516102b791906111f5565b60405180910390f35b6102c8610712565b005b3480156102d657600080fd5b506102f160048036038101906102ec919061119a565b61077b565b6040516102fe91906111f5565b60405180910390f35b34801561031357600080fd5b5061032e6004803603810190610329919061131e565b61079e565b60405161033b919061121f565b60405180910390f35b6060600380546103539061138d565b80601f016020809104026020016040519081016040528092919081815260200182805461037f9061138d565b80156103cc5780601f106103a1576101008083540402835291602001916103cc565b820191906000526020600020905b8154815290600101906020018083116103af57829003601f168201915b5050505050905090565b6000806103e1610825565b90506103ee81858561082d565b600191505092915050565b6000600254905090565b60008061040e610825565b905061041b8582856109f8565b610426858585610a84565b60019150509392505050565b8061043c336105c1565b101561047d576040517f08c379a00000000000000000000000000000000000000000000000000000000081526004016104749061140b565b60405180910390fd5b60003373ffffffffffffffffffffffffffffffffffffffff1667016345785d8a0000836104aa919061145a565b6040516104b6906114e5565b60006040518083038185875af1925050503d80600081146104f3576040519150601f19603f3d011682016040523d82523d6000602084013e6104f8565b606091505b505090508061053c576040517f08c379a000000000000000000000000000000000000000000000000000000000815260040161053390611546565b60405180910390fd5b6105463383610d05565b7facde07cd0d2d88040f1897f0b7d20df6db9f11513f61896d1c7079e67d5c63d282604051610575919061121f565b60405180910390a15050565b60006012905090565b600080610595610825565b90506105b68185856105a7858961079e565b6105b19190611566565b61082d565b600191505092915050565b60008060008373ffffffffffffffffffffffffffffffffffffffff1673ffffffffffffffffffffffffffffffffffffffff168152602001908152602001600020549050919050565b6060600480546106189061138d565b80601f01602080910402602001604051908101604052809291908181526020018280546106449061138d565b80156106915780601f1061066657610100808354040283529160200191610691565b820191906000526020600020905b81548152906001019060200180831161067457829003601f168201915b5050505050905090565b6000806106a6610825565b905060006106b4828661079e565b9050838110156106f9576040517f08c379a00000000000000000000000000000000000000000000000000000000081526004016106f09061162e565b60405180910390fd5b610706828686840361082d565b60019250505092915050565b61072f3367016345785d8a00003461072a919061167d565b610edc565b7f4e08ba899977cf7d4c2964bce71c6b9a7ef76ee5166a4c1249a1e08016e33ef167016345785d8a000034610764919061167d565b604051610771919061121f565b60405180910390a1565b600080610786610825565b9050610793818585610a84565b600191505092915050565b6000600160008473ffffffffffffffffffffffffffffffffffffffff1673ffffffffffffffffffffffffffffffffffffffff16815260200190815260200160002060008373ffffffffffffffffffffffffffffffffffffffff1673ffffffffffffffffffffffffffffffffffffffff16815260200190815260200160002054905092915050565b600033905090565b600073ffffffffffffffffffffffffffffffffffffffff168373ffffffffffffffffffffffffffffffffffffffff16141561089d576040517f08c379a000000000000000000000000000000000000000000000000000000000815260040161089490611720565b60405180910390fd5b600073ffffffffffffffffffffffffffffffffffffffff168273ffffffffffffffffffffffffffffffffffffffff16141561090d576040517f08c379a0000000000000000000000000000000000000000000000000000000008152600401610904906117b2565b60405180910390fd5b80600160008573ffffffffffffffffffffffffffffffffffffffff1673ffffffffffffffffffffffffffffffffffffffff16815260200190815260200160002060008473ffffffffffffffffffffffffffffffffffffffff1673ffffffffffffffffffffffffffffffffffffffff168152602001908152602001600020819055508173ffffffffffffffffffffffffffffffffffffffff168373ffffffffffffffffffffffffffffffffffffffff167f8c5be1e5ebec7d5bd14f71427d1e84f3dd0314c0f7b2291e5b200ac8c7c3b925836040516109eb919061121f565b60405180910390a3505050565b6000610a04848461079e565b90507fffffffffffffffffffffffffffffffffffffffffffffffffffffffffffffffff8114610a7e5781811015610a70576040517f08c379a0000000000000000000000000000000000000000000000000000000008152600401610a679061181e565b60405180910390fd5b610a7d848484840361082d565b5b50505050565b600073ffffffffffffffffffffffffffffffffffffffff168373ffffffffffffffffffffffffffffffffffffffff161415610af4576040517f08c379a0000000000000000000000000000000000000000000000000000000008152600401610aeb906118b0565b60405180910390fd5b600073ffffffffffffffffffffffffffffffffffffffff168273ffffffffffffffffffffffffffffffffffffffff161415610b64576040517f08c379a0000000000000000000000000000000000000000000000000000000008152600401610b5b90611942565b60405180910390fd5b610b6f83838361103c565b60008060008573ffffffffffffffffffffffffffffffffffffffff1673ffffffffffffffffffffffffffffffffffffffff16815260200190815260200160002054905081811015610bf5576040517f08c379a0000000000000000000000000000000000000000000000000000000008152600401610bec906119d4565b60405180910390fd5b8181036000808673ffffffffffffffffffffffffffffffffffffffff1673ffffffffffffffffffffffffffffffffffffffff16815260200190815260200160002081905550816000808573ffffffffffffffffffffffffffffffffffffffff1673ffffffffffffffffffffffffffffffffffffffff1681526020019081526020016000206000828254610c889190611566565b925050819055508273ffffffffffffffffffffffffffffffffffffffff168473ffffffffffffffffffffffffffffffffffffffff167fddf252ad1be2c89b69c2b068fc378daa952ba7f163c4a11628f55a4df523b3ef84604051610cec919061121f565b60405180910390a3610cff848484611041565b50505050565b600073ffffffffffffffffffffffffffffffffffffffff168273ffffffffffffffffffffffffffffffffffffffff161415610d75576040517f08c379a0000000000000000000000000000000000000000000000000000000008152600401610d6c90611a66565b60405180910390fd5b610d818260008361103c565b60008060008473ffffffffffffffffffffffffffffffffffffffff1673ffffffffffffffffffffffffffffffffffffffff16815260200190815260200160002054905081811015610e07576040517f08c379a0000000000000000000000000000000000000000000000000000000008152600401610dfe90611af8565b60405180910390fd5b8181036000808573ffffffffffffffffffffffffffffffffffffffff1673ffffffffffffffffffffffffffffffffffffffff168152602001908152602001600020819055508160026000828254610e5e9190611b18565b92505081905550600073ffffffffffffffffffffffffffffffffffffffff168373ffffffffffffffffffffffffffffffffffffffff167fddf252ad1be2c89b69c2b068fc378daa952ba7f163c4a11628f55a4df523b3ef84604051610ec3919061121f565b60405180910390a3610ed783600084611041565b505050565b600073ffffffffffffffffffffffffffffffffffffffff168273ffffffffffffffffffffffffffffffffffffffff161415610f4c576040517f08c379a0000000000000000000000000000000000000000000000000000000008152600401610f4390611b98565b60405180910390fd5b610f586000838361103c565b8060026000828254610f6a9190611566565b92505081905550806000808473ffffffffffffffffffffffffffffffffffffffff1673ffffffffffffffffffffffffffffffffffffffff1681526020019081526020016000206000828254610fbf9190611566565b925050819055508173ffffffffffffffffffffffffffffffffffffffff16600073ffffffffffffffffffffffffffffffffffffffff167fddf252ad1be2c89b69c2b068fc378daa952ba7f163c4a11628f55a4df523b3ef83604051611024919061121f565b60405180910390a361103860008383611041565b5050565b505050565b505050565b600081519050919050565b600082825260208201905092915050565b60005b83811015611080578082015181840152602081019050611065565b8381111561108f576000848401525b50505050565b6000601f19601f8301169050919050565b60006110b182611046565b6110bb8185611051565b93506110cb818560208601611062565b6110d481611095565b840191505092915050565b600060208201905081810360008301526110f981846110a6565b905092915050565b600080fd5b600073ffffffffffffffffffffffffffffffffffffffff82169050919050565b600061113182611106565b9050919050565b61114181611126565b811461114c57600080fd5b50565b60008135905061115e81611138565b92915050565b6000819050919050565b61117781611164565b811461118257600080fd5b50565b6000813590506111948161116e565b92915050565b600080604083850312156111b1576111b0611101565b5b60006111bf8582860161114f565b92505060206111d085828601611185565b9150509250929050565b60008115159050919050565b6111ef816111da565b82525050565b600060208201905061120a60008301846111e6565b92915050565b61121981611164565b82525050565b60006020820190506112346000830184611210565b92915050565b60008060006060848603121561125357611252611101565b5b60006112618682870161114f565b93505060206112728682870161114f565b925050604061128386828701611185565b9150509250925092565b6000602082840312156112a3576112a2611101565b5b60006112b184828501611185565b91505092915050565b600060ff82169050919050565b6112d0816112ba565b82525050565b60006020820190506112eb60008301846112c7565b92915050565b60006020828403121561130757611306611101565b5b60006113158482850161114f565b91505092915050565b6000806040838503121561133557611334611101565b5b60006113438582860161114f565b92505060206113548582860161114f565b9150509250929050565b7f4e487b7100000000000000000000000000000000000000000000000000000000600052602260045260246000fd5b600060028204905060018216806113a557607f821691505b602082108114156113b9576113b861135e565b5b50919050565b7f43757272656e742062616c616e6365206973206e6f7420656e6f756768000000600082015250565b60006113f5601d83611051565b9150611400826113bf565b602082019050919050565b60006020820190508181036000830152611424816113e8565b9050919050565b7f4e487b7100000000000000000000000000000000000000000000000000000000600052601160045260246000fd5b600061146582611164565b915061147083611164565b9250817fffffffffffffffffffffffffffffffffffffffffffffffffffffffffffffffff04831182151516156114a9576114a861142b565b5b828202905092915050565b600081905092915050565b50565b60006114cf6000836114b4565b91506114da826114bf565b600082019050919050565b60006114f0826114c2565b9150819050919050565b7f5769746864726177206e6f74207375636365737366756c210000000000000000600082015250565b6000611530601883611051565b915061153b826114fa565b602082019050919050565b6000602082019050818103600083015261155f81611523565b9050919050565b600061157182611164565b915061157c83611164565b9250827fffffffffffffffffffffffffffffffffffffffffffffffffffffffffffffffff038211156115b1576115b061142b565b5b828201905092915050565b7f45524332303a2064656372656173656420616c6c6f77616e63652062656c6f7760008201527f207a65726f000000000000000000000000000000000000000000000000000000602082015250565b6000611618602583611051565b9150611623826115bc565b604082019050919050565b600060208201905081810360008301526116478161160b565b9050919050565b7f4e487b7100000000000000000000000000000000000000000000000000000000600052601260045260246000fd5b600061168882611164565b915061169383611164565b9250826116a3576116a261164e565b5b828204905092915050565b7f45524332303a20617070726f76652066726f6d20746865207a65726f2061646460008201527f7265737300000000000000000000000000000000000000000000000000000000602082015250565b600061170a602483611051565b9150611715826116ae565b604082019050919050565b60006020820190508181036000830152611739816116fd565b9050919050565b7f45524332303a20617070726f766520746f20746865207a65726f20616464726560008201527f7373000000000000000000000000000000000000000000000000000000000000602082015250565b600061179c602283611051565b91506117a782611740565b604082019050919050565b600060208201905081810360008301526117cb8161178f565b9050919050565b7f45524332303a20696e73756666696369656e7420616c6c6f77616e6365000000600082015250565b6000611808601d83611051565b9150611813826117d2565b602082019050919050565b60006020820190508181036000830152611837816117fb565b9050919050565b7f45524332303a207472616e736665722066726f6d20746865207a65726f20616460008201527f6472657373000000000000000000000000000000000000000000000000000000602082015250565b600061189a602583611051565b91506118a58261183e565b604082019050919050565b600060208201905081810360008301526118c98161188d565b9050919050565b7f45524332303a207472616e7366657220746f20746865207a65726f206164647260008201527f6573730000000000000000000000000000000000000000000000000000000000602082015250565b600061192c602383611051565b9150611937826118d0565b604082019050919050565b6000602082019050818103600083015261195b8161191f565b9050919050565b7f45524332303a207472616e7366657220616d6f756e742065786365656473206260008201527f616c616e63650000000000000000000000000000000000000000000000000000602082015250565b60006119be602683611051565b91506119c982611962565b604082019050919050565b600060208201905081810360008301526119ed816119b1565b9050919050565b7f45524332303a206275726e2066726f6d20746865207a65726f2061646472657360008201527f7300000000000000000000000000000000000000000000000000000000000000602082015250565b6000611a50602183611051565b9150611a5b826119f4565b604082019050919050565b60006020820190508181036000830152611a7f81611a43565b9050919050565b7f45524332303a206275726e20616d6f756e7420657863656564732062616c616e60008201527f6365000000000000000000000000000000000000000000000000000000000000602082015250565b6000611ae2602283611051565b9150611aed82611a86565b604082019050919050565b60006020820190508181036000830152611b1181611ad5565b9050919050565b6000611b2382611164565b9150611b2e83611164565b925082821015611b4157611b4061142b565b5b828203905092915050565b7f45524332303a206d696e7420746f20746865207a65726f206164647265737300600082015250565b6000611b82601f83611051565b9150611b8d82611b4c565b602082019050919050565b60006020820190508181036000830152611bb181611b75565b905091905056fea2646970667358221220a4a999ad1de724d22e180acacbd8c3791229a4cab6fe25ab4e706c8627a5a3cc64736f6c63430008090033",
  "linkReferences": {},
  "deployedLinkReferences": {}
}