{
  "_format": "hh-sol-artifact-1",
  "contractName": "EvenOdd",
  "sourceName": "contracts/EvenOdd.sol",
  "abi": [
    {
      "inputs": [
        {
          "internalType": "address",
          "name": "cashAddress",
          "type": "address"
        },
        {
          "internalType": "address",
          "name": "ticketAddress",
          "type": "address"
        }
      ],
      "stateMutability": "payable",
      "type": "constructor"
    },
    {
      "anonymous": false,
      "inputs": [
        {
          "indexed": false,
          "internalType": "address",
          "name": "_userAddress",
          "type": "address"
        },
        {
          "indexed": false,
          "internalType": "uint256",
          "name": "_amount",
          "type": "uint256"
        }
      ],
      "name": "Betted",
      "type": "event"
    },
    {
      "anonymous": false,
      "inputs": [
        {
          "indexed": false,
          "internalType": "uint256",
          "name": "_gameId",
          "type": "uint256"
        },
        {
          "indexed": false,
          "internalType": "bool",
          "name": "_result",
          "type": "bool"
        }
      ],
      "name": "EndedGame",
      "type": "event"
    },
    {
      "anonymous": false,
      "inputs": [
        {
          "indexed": true,
          "internalType": "address",
          "name": "previousOwner",
          "type": "address"
        },
        {
          "indexed": true,
          "internalType": "address",
          "name": "newOwner",
          "type": "address"
        }
      ],
      "name": "OwnershipTransferred",
      "type": "event"
    },
    {
      "inputs": [
        {
          "internalType": "bool",
          "name": "isOdd",
          "type": "bool"
        },
        {
          "internalType": "uint256",
          "name": "amount",
          "type": "uint256"
        }
      ],
      "name": "bet",
      "outputs": [],
      "stateMutability": "nonpayable",
      "type": "function"
    },
    {
      "inputs": [],
      "name": "latestedMatchId",
      "outputs": [
        {
          "internalType": "uint256",
          "name": "",
          "type": "uint256"
        }
      ],
      "stateMutability": "view",
      "type": "function"
    },
    {
      "inputs": [
        {
          "internalType": "uint256",
          "name": "",
          "type": "uint256"
        }
      ],
      "name": "matchList",
      "outputs": [
        {
          "internalType": "uint256",
          "name": "roll1",
          "type": "uint256"
        },
        {
          "internalType": "uint256",
          "name": "roll2",
          "type": "uint256"
        }
      ],
      "stateMutability": "view",
      "type": "function"
    },
    {
      "inputs": [],
      "name": "owner",
      "outputs": [
        {
          "internalType": "address",
          "name": "",
          "type": "address"
        }
      ],
      "stateMutability": "view",
      "type": "function"
    },
    {
      "inputs": [],
      "name": "play",
      "outputs": [],
      "stateMutability": "nonpayable",
      "type": "function"
    },
    {
      "inputs": [
        {
          "internalType": "uint256",
          "name": "",
          "type": "uint256"
        },
        {
          "internalType": "uint256",
          "name": "",
          "type": "uint256"
        }
      ],
      "name": "playerList",
      "outputs": [
        {
          "internalType": "uint256",
          "name": "ticketId",
          "type": "uint256"
        },
        {
          "internalType": "bool",
          "name": "isOdd",
          "type": "bool"
        },
        {
          "internalType": "uint256",
          "name": "bet",
          "type": "uint256"
        }
      ],
      "stateMutability": "view",
      "type": "function"
    },
    {
      "inputs": [],
      "name": "renounceOwnership",
      "outputs": [],
      "stateMutability": "nonpayable",
      "type": "function"
    },
    {
      "inputs": [
        {
          "internalType": "address",
          "name": "newOwner",
          "type": "address"
        }
      ],
      "name": "transferOwnership",
      "outputs": [],
      "stateMutability": "nonpayable",
      "type": "function"
    }
  ],
  "bytecode": "0x608060405260405162001f7138038062001f71833981810160405281019062000029919062000295565b620000496200003d6200015f60201b60201c565b6200016760201b60201c565b6001808190555081600260006101000a81548173ffffffffffffffffffffffffffffffffffffffff021916908373ffffffffffffffffffffffffffffffffffffffff16021790555080600360006101000a81548173ffffffffffffffffffffffffffffffffffffffff021916908373ffffffffffffffffffffffffffffffffffffffff160217905550600260009054906101000a900473ffffffffffffffffffffffffffffffffffffffff1673ffffffffffffffffffffffffffffffffffffffff1663a6f2ae3a346040518263ffffffff1660e01b81526004016000604051808303818588803b1580156200013d57600080fd5b505af115801562000152573d6000803e3d6000fd5b50505050505050620002dc565b600033905090565b60008060009054906101000a900473ffffffffffffffffffffffffffffffffffffffff169050816000806101000a81548173ffffffffffffffffffffffffffffffffffffffff021916908373ffffffffffffffffffffffffffffffffffffffff1602179055508173ffffffffffffffffffffffffffffffffffffffff168173ffffffffffffffffffffffffffffffffffffffff167f8be0079c531659141344cd1fd0a4f28419497f9722a3daafe3b4186f6b6457e060405160405180910390a35050565b600080fd5b600073ffffffffffffffffffffffffffffffffffffffff82169050919050565b60006200025d8262000230565b9050919050565b6200026f8162000250565b81146200027b57600080fd5b50565b6000815190506200028f8162000264565b92915050565b60008060408385031215620002af57620002ae6200022b565b5b6000620002bf858286016200027e565b9250506020620002d2858286016200027e565b9150509250929050565b611c8580620002ec6000396000f3fe608060405234801561001057600080fd5b50600436106100885760003560e01c8063715018a61161005b578063715018a61461012a5780638da5cb5b1461013457806393e84cd914610152578063f2fde38b1461015c57610088565b8063140fc4b51461008d5780632748cc06146100be5780634b32b51f146100f05780635229a6fd1461010e575b600080fd5b6100a760048036038101906100a29190611282565b610178565b6040516100b59291906112be565b60405180910390f35b6100d860048036038101906100d391906112e7565b61019c565b6040516100e793929190611342565b60405180910390f35b6100f86101f0565b6040516101059190611379565b60405180910390f35b610128600480360381019061012391906113c0565b6101f6565b005b6101326104ef565b005b61013c610503565b6040516101499190611441565b60405180910390f35b61015a61052c565b005b61017660048036038101906101719190611488565b61054e565b005b60066020528060005260406000206000915090508060000154908060010154905082565b600560205281600052604060002081815481106101b857600080fd5b9060005260206000209060030201600091509150508060000154908060010160009054906101000a900460ff16908060020154905083565b60045481565b6002600154141561023c576040517f08c379a000000000000000000000000000000000000000000000000000000000815260040161023390611512565b60405180910390fd5b600260018190555061024c6105d2565b6102546107ce565b61025d816109a7565b600260009054906101000a900473ffffffffffffffffffffffffffffffffffffffff1673ffffffffffffffffffffffffffffffffffffffff166323b872dd3330846040518463ffffffff1660e01b81526004016102bc93929190611532565b602060405180830381600087803b1580156102d657600080fd5b505af11580156102ea573d6000803e3d6000fd5b505050506040513d601f19601f8201168201806040525081019061030e919061157e565b50600360009054906101000a900473ffffffffffffffffffffffffffffffffffffffff1673ffffffffffffffffffffffffffffffffffffffff1663d848f991610355610ca0565b6040518263ffffffff1660e01b81526004016103719190611441565b600060405180830381600087803b15801561038b57600080fd5b505af115801561039f573d6000803e3d6000fd5b5050505060006040518060600160405280600360009054906101000a900473ffffffffffffffffffffffffffffffffffffffff1673ffffffffffffffffffffffffffffffffffffffff166395ef1aeb336040518263ffffffff1660e01b815260040161040b9190611441565b60206040518083038186803b15801561042357600080fd5b505afa158015610437573d6000803e3d6000fd5b505050506040513d601f19601f8201168201806040525081019061045b91906115c0565b815260200184151581526020018381525090506005600060045481526020019081526020016000208190806001815401808255809150506001900390600052602060002090600302016000909190919091506000820151816000015560208201518160010160006101000a81548160ff02191690831515021790555060408201518160020155505050600180819055505050565b6104f7610ca8565b6105016000610d26565b565b60008060009054906101000a900473ffffffffffffffffffffffffffffffffffffffff16905090565b610534610ca8565b61053c610dea565b610544610ef5565b61054c611227565b565b610556610ca8565b600073ffffffffffffffffffffffffffffffffffffffff168173ffffffffffffffffffffffffffffffffffffffff1614156105c6576040517f08c379a00000000000000000000000000000000000000000000000000000000081526004016105bd9061165f565b60405180910390fd5b6105cf81610d26565b50565b6000600360009054906101000a900473ffffffffffffffffffffffffffffffffffffffff1673ffffffffffffffffffffffffffffffffffffffff166395ef1aeb61061a610ca0565b6040518263ffffffff1660e01b81526004016106369190611441565b60206040518083038186803b15801561064e57600080fd5b505afa158015610662573d6000803e3d6000fd5b505050506040513d601f19601f8201168201806040525081019061068691906115c0565b905060008114156106cc576040517f08c379a00000000000000000000000000000000000000000000000000000000081526004016106c3906116f1565b60405180910390fd5b6000600360009054906101000a900473ffffffffffffffffffffffffffffffffffffffff1673ffffffffffffffffffffffffffffffffffffffff1663ba2eb541610714610ca0565b6040518263ffffffff1660e01b81526004016107309190611441565b60206040518083038186803b15801561074857600080fd5b505afa15801561075c573d6000803e3d6000fd5b505050506040513d601f19601f82011682018060405250810190610780919061157e565b90506001151581151514156107ca576040517f08c379a00000000000000000000000000000000000000000000000000000000081526004016107c190611783565b60405180910390fd5b5050565b6000600360009054906101000a900473ffffffffffffffffffffffffffffffffffffffff1673ffffffffffffffffffffffffffffffffffffffff166395ef1aeb610816610ca0565b6040518263ffffffff1660e01b81526004016108329190611441565b60206040518083038186803b15801561084a57600080fd5b505afa15801561085e573d6000803e3d6000fd5b505050506040513d601f19601f8201168201806040525081019061088291906115c0565b90506000600560006004548152602001908152602001600020805480602002602001604051908101604052809291908181526020016000905b8282101561091c5783829060005260206000209060030201604051806060016040529081600082015481526020016001820160009054906101000a900460ff16151515158152602001600282015481525050815260200190600101906108bb565b50505050905060005b81518110156109a25782828281518110610942576109416117a3565b5b602002602001015160000151141561098f576040517f08c379a00000000000000000000000000000000000000000000000000000000081526004016109869061181e565b60405180910390fd5b808061099a9061186d565b915050610925565b505050565b80600260009054906101000a900473ffffffffffffffffffffffffffffffffffffffff1673ffffffffffffffffffffffffffffffffffffffff166370a082316109ee610ca0565b6040518263ffffffff1660e01b8152600401610a0a9190611441565b60206040518083038186803b158015610a2257600080fd5b505afa158015610a36573d6000803e3d6000fd5b505050506040513d601f19601f82011682018060405250810190610a5a91906115c0565b1015610a9b576040517f08c379a0000000000000000000000000000000000000000000000000000000008152600401610a9290611928565b60405180910390fd5b6000600560006004548152602001908152602001600020805480602002602001604051908101604052809291908181526020016000905b82821015610b335783829060005260206000209060030201604051806060016040529081600082015481526020016001820160009054906101000a900460ff1615151515815260200160028201548152505081526020019060010190610ad2565b5050505090506000805b8251811015610b8557828181518110610b5957610b586117a3565b5b60200260200101516040015182610b709190611948565b91508080610b7d9061186d565b915050610b3d565b50600060028483610b969190611948565b610ba0919061199e565b905083600260009054906101000a900473ffffffffffffffffffffffffffffffffffffffff1673ffffffffffffffffffffffffffffffffffffffff166370a08231306040518263ffffffff1660e01b8152600401610bfe9190611441565b60206040518083038186803b158015610c1657600080fd5b505afa158015610c2a573d6000803e3d6000fd5b505050506040513d601f19601f82011682018060405250810190610c4e91906115c0565b610c589190611948565b811115610c9a576040517f08c379a0000000000000000000000000000000000000000000000000000000008152600401610c9190611a6a565b60405180910390fd5b50505050565b600033905090565b610cb0610ca0565b73ffffffffffffffffffffffffffffffffffffffff16610cce610503565b73ffffffffffffffffffffffffffffffffffffffff1614610d24576040517f08c379a0000000000000000000000000000000000000000000000000000000008152600401610d1b90611ad6565b60405180910390fd5b565b60008060009054906101000a900473ffffffffffffffffffffffffffffffffffffffff169050816000806101000a81548173ffffffffffffffffffffffffffffffffffffffff021916908373ffffffffffffffffffffffffffffffffffffffff1602179055508173ffffffffffffffffffffffffffffffffffffffff168173ffffffffffffffffffffffffffffffffffffffff167f8be0079c531659141344cd1fd0a4f28419497f9722a3daafe3b4186f6b6457e060405160405180910390a35050565b610df2610ca8565b6000600343610e019190611b25565b600244610e0e919061199e565b600f42610e1b9190611b56565b610e259190611948565b610e2f9190611b87565b90506000600444600243610e43919061199e565b601760054642610e539190611b25565b610e5d9190611948565b610e679190611b56565b610e719190611948565b610e7b9190611948565b610e859190611b25565b90506001600683610e969190611b56565b610ea09190611948565b600660006004548152602001908152602001600020600001819055506001600682610ecb9190611b56565b610ed59190611948565b600660006004548152602001908152602001600020600101819055505050565b610efd610ca8565b6000600560006004548152602001908152602001600020805480602002602001604051908101604052809291908181526020016000905b82821015610f955783829060005260206000209060030201604051806060016040529081600082015481526020016001820160009054906101000a900460ff1615151515815260200160028201548152505081526020019060010190610f34565b505050509050600060066000600454815260200190815260200160002060405180604001604052908160008201548152602001600182015481525050905060006001600283602001518460000151610fed9190611948565b610ff79190611b56565b14905060005b83518110156111e65781151584828151811061101c5761101b6117a3565b5b602002602001015160200151151514156111d357600260009054906101000a900473ffffffffffffffffffffffffffffffffffffffff1673ffffffffffffffffffffffffffffffffffffffff1663a9059cbb600360009054906101000a900473ffffffffffffffffffffffffffffffffffffffff1673ffffffffffffffffffffffffffffffffffffffff16636352211e8785815181106110bf576110be6117a3565b5b6020026020010151600001516040518263ffffffff1660e01b81526004016110e79190611379565b60206040518083038186803b1580156110ff57600080fd5b505afa158015611113573d6000803e3d6000fd5b505050506040513d601f19601f820116820180604052508101906111379190611bd0565b600287858151811061114c5761114b6117a3565b5b602002602001015160400151611162919061199e565b6040518363ffffffff1660e01b815260040161117f929190611bfd565b602060405180830381600087803b15801561119957600080fd5b505af11580156111ad573d6000803e3d6000fd5b505050506040513d601f19601f820116820180604052508101906111d1919061157e565b505b80806111de9061186d565b915050610ffd565b507f98ddc2224540c293ef782a16f7b3859c25466ed9326cf40ed8c141e9ff790f586004548260405161121a929190611c26565b60405180910390a1505050565b61122f610ca8565b60046000815461123e9061186d565b91905081905550565b600080fd5b6000819050919050565b61125f8161124c565b811461126a57600080fd5b50565b60008135905061127c81611256565b92915050565b60006020828403121561129857611297611247565b5b60006112a68482850161126d565b91505092915050565b6112b88161124c565b82525050565b60006040820190506112d360008301856112af565b6112e060208301846112af565b9392505050565b600080604083850312156112fe576112fd611247565b5b600061130c8582860161126d565b925050602061131d8582860161126d565b9150509250929050565b60008115159050919050565b61133c81611327565b82525050565b600060608201905061135760008301866112af565b6113646020830185611333565b61137160408301846112af565b949350505050565b600060208201905061138e60008301846112af565b92915050565b61139d81611327565b81146113a857600080fd5b50565b6000813590506113ba81611394565b92915050565b600080604083850312156113d7576113d6611247565b5b60006113e5858286016113ab565b92505060206113f68582860161126d565b9150509250929050565b600073ffffffffffffffffffffffffffffffffffffffff82169050919050565b600061142b82611400565b9050919050565b61143b81611420565b82525050565b60006020820190506114566000830184611432565b92915050565b61146581611420565b811461147057600080fd5b50565b6000813590506114828161145c565b92915050565b60006020828403121561149e5761149d611247565b5b60006114ac84828501611473565b91505092915050565b600082825260208201905092915050565b7f5265656e7472616e637947756172643a207265656e7472616e742063616c6c00600082015250565b60006114fc601f836114b5565b9150611507826114c6565b602082019050919050565b6000602082019050818103600083015261152b816114ef565b9050919050565b60006060820190506115476000830186611432565b6115546020830185611432565b61156160408301846112af565b949350505050565b60008151905061157881611394565b92915050565b60006020828403121561159457611593611247565b5b60006115a284828501611569565b91505092915050565b6000815190506115ba81611256565b92915050565b6000602082840312156115d6576115d5611247565b5b60006115e4848285016115ab565b91505092915050565b7f4f776e61626c653a206e6577206f776e657220697320746865207a65726f206160008201527f6464726573730000000000000000000000000000000000000000000000000000602082015250565b60006116496026836114b5565b9150611654826115ed565b604082019050919050565b600060208201905081810360008301526116788161163c565b9050919050565b7f54686973207573657220646f6573206e6f742068617665207469636b65742e2060008201527f506c65617365206275792061206f6e6520746f20706c61790000000000000000602082015250565b60006116db6038836114b5565b91506116e68261167f565b604082019050919050565b6000602082019050818103600083015261170a816116ce565b9050919050565b7f5468697320757365722773207469636b657420697320657870697265642e205060008201527f6c65617365206275792061206e6577206f6e6520746f20706c61790000000000602082015250565b600061176d603b836114b5565b915061177882611711565b604082019050919050565b6000602082019050818103600083015261179c81611760565b9050919050565b7f4e487b7100000000000000000000000000000000000000000000000000000000600052603260045260246000fd5b7f5468697320757365722068617320626574206265666f72652100000000000000600082015250565b60006118086019836114b5565b9150611813826117d2565b602082019050919050565b60006020820190508181036000830152611837816117fb565b9050919050565b7f4e487b7100000000000000000000000000000000000000000000000000000000600052601160045260246000fd5b60006118788261124c565b91507fffffffffffffffffffffffffffffffffffffffffffffffffffffffffffffffff8214156118ab576118aa61183e565b5b600182019050919050565b7f5573657227732062616c616e6365206973206e6f7420656e6f75676820746f2060008201527f6265740000000000000000000000000000000000000000000000000000000000602082015250565b60006119126023836114b5565b915061191d826118b6565b604082019050919050565b6000602082019050818103600083015261194181611905565b9050919050565b60006119538261124c565b915061195e8361124c565b9250827fffffffffffffffffffffffffffffffffffffffffffffffffffffffffffffffff038211156119935761199261183e565b5b828201905092915050565b60006119a98261124c565b91506119b48361124c565b9250817fffffffffffffffffffffffffffffffffffffffffffffffffffffffffffffffff04831182151516156119ed576119ec61183e565b5b828202905092915050565b7f436f6e7472616374206973206e6f7420656e6f756768206361736820746f207260008201527f657761726420696620757365722077696e000000000000000000000000000000602082015250565b6000611a546031836114b5565b9150611a5f826119f8565b604082019050919050565b60006020820190508181036000830152611a8381611a47565b9050919050565b7f4f776e61626c653a2063616c6c6572206973206e6f7420746865206f776e6572600082015250565b6000611ac06020836114b5565b9150611acb82611a8a565b602082019050919050565b60006020820190508181036000830152611aef81611ab3565b9050919050565b7f4e487b7100000000000000000000000000000000000000000000000000000000600052601260045260246000fd5b6000611b308261124c565b9150611b3b8361124c565b925082611b4b57611b4a611af6565b5b828204905092915050565b6000611b618261124c565b9150611b6c8361124c565b925082611b7c57611b7b611af6565b5b828206905092915050565b6000611b928261124c565b9150611b9d8361124c565b925082821015611bb057611baf61183e565b5b828203905092915050565b600081519050611bca8161145c565b92915050565b600060208284031215611be657611be5611247565b5b6000611bf484828501611bbb565b91505092915050565b6000604082019050611c126000830185611432565b611c1f60208301846112af565b9392505050565b6000604082019050611c3b60008301856112af565b611c486020830184611333565b939250505056fea2646970667358221220573ee324b4ac662a380533fb9637221bec19aaec7c27df0a1ca55b615eca9ef764736f6c63430008090033",
  "linkReferences": {},
  "deployedLinkReferences": {}
}