{
  "_format": "hh-sol-artifact-1",
  "contractName": "EvenOdd",
  "sourceName": "contracts/EvenOdd.sol",
  "abi": [
    {
      "inputs": [
        {
          "internalType": "address",
          "name": "cashAddress",
          "type": "address"
        },
        {
          "internalType": "address",
          "name": "ticketAddress",
          "type": "address"
        }
      ],
      "stateMutability": "payable",
      "type": "constructor"
    },
    {
      "anonymous": false,
      "inputs": [
        {
          "indexed": false,
          "internalType": "address",
          "name": "_userAddress",
          "type": "address"
        },
        {
          "indexed": false,
          "internalType": "uint256",
          "name": "_gameId",
          "type": "uint256"
        },
        {
          "indexed": false,
          "internalType": "uint256",
          "name": "_amount",
          "type": "uint256"
        }
      ],
      "name": "Betted",
      "type": "event"
    },
    {
      "anonymous": false,
      "inputs": [
        {
          "indexed": false,
          "internalType": "uint256",
          "name": "_gameId",
          "type": "uint256"
        },
        {
          "indexed": false,
          "internalType": "bool",
          "name": "_result",
          "type": "bool"
        }
      ],
      "name": "EndedGame",
      "type": "event"
    },
    {
      "anonymous": false,
      "inputs": [
        {
          "indexed": true,
          "internalType": "address",
          "name": "previousOwner",
          "type": "address"
        },
        {
          "indexed": true,
          "internalType": "address",
          "name": "newOwner",
          "type": "address"
        }
      ],
      "name": "OwnershipTransferred",
      "type": "event"
    },
    {
      "inputs": [
        {
          "internalType": "bool",
          "name": "isOdd",
          "type": "bool"
        },
        {
          "internalType": "uint256",
          "name": "amount",
          "type": "uint256"
        }
      ],
      "name": "bet",
      "outputs": [],
      "stateMutability": "nonpayable",
      "type": "function"
    },
    {
      "inputs": [],
      "name": "latestedMatchId",
      "outputs": [
        {
          "internalType": "uint256",
          "name": "",
          "type": "uint256"
        }
      ],
      "stateMutability": "view",
      "type": "function"
    },
    {
      "inputs": [
        {
          "internalType": "uint256",
          "name": "",
          "type": "uint256"
        }
      ],
      "name": "matchList",
      "outputs": [
        {
          "internalType": "uint256",
          "name": "roll1",
          "type": "uint256"
        },
        {
          "internalType": "uint256",
          "name": "roll2",
          "type": "uint256"
        }
      ],
      "stateMutability": "view",
      "type": "function"
    },
    {
      "inputs": [],
      "name": "owner",
      "outputs": [
        {
          "internalType": "address",
          "name": "",
          "type": "address"
        }
      ],
      "stateMutability": "view",
      "type": "function"
    },
    {
      "inputs": [],
      "name": "play",
      "outputs": [],
      "stateMutability": "nonpayable",
      "type": "function"
    },
    {
      "inputs": [
        {
          "internalType": "uint256",
          "name": "",
          "type": "uint256"
        },
        {
          "internalType": "uint256",
          "name": "",
          "type": "uint256"
        }
      ],
      "name": "playerList",
      "outputs": [
        {
          "internalType": "uint256",
          "name": "ticketId",
          "type": "uint256"
        },
        {
          "internalType": "bool",
          "name": "isOdd",
          "type": "bool"
        },
        {
          "internalType": "uint256",
          "name": "bet",
          "type": "uint256"
        }
      ],
      "stateMutability": "view",
      "type": "function"
    },
    {
      "inputs": [],
      "name": "renounceOwnership",
      "outputs": [],
      "stateMutability": "nonpayable",
      "type": "function"
    },
    {
      "inputs": [
        {
          "internalType": "address",
          "name": "newOwner",
          "type": "address"
        }
      ],
      "name": "transferOwnership",
      "outputs": [],
      "stateMutability": "nonpayable",
      "type": "function"
    }
  ],
  "bytecode": "0x608060405260405162001fe538038062001fe5833981810160405281019062000029919062000295565b620000496200003d6200015f60201b60201c565b6200016760201b60201c565b6001808190555081600260006101000a81548173ffffffffffffffffffffffffffffffffffffffff021916908373ffffffffffffffffffffffffffffffffffffffff16021790555080600360006101000a81548173ffffffffffffffffffffffffffffffffffffffff021916908373ffffffffffffffffffffffffffffffffffffffff160217905550600260009054906101000a900473ffffffffffffffffffffffffffffffffffffffff1673ffffffffffffffffffffffffffffffffffffffff1663a6f2ae3a346040518263ffffffff1660e01b81526004016000604051808303818588803b1580156200013d57600080fd5b505af115801562000152573d6000803e3d6000fd5b50505050505050620002dc565b600033905090565b60008060009054906101000a900473ffffffffffffffffffffffffffffffffffffffff169050816000806101000a81548173ffffffffffffffffffffffffffffffffffffffff021916908373ffffffffffffffffffffffffffffffffffffffff1602179055508173ffffffffffffffffffffffffffffffffffffffff168173ffffffffffffffffffffffffffffffffffffffff167f8be0079c531659141344cd1fd0a4f28419497f9722a3daafe3b4186f6b6457e060405160405180910390a35050565b600080fd5b600073ffffffffffffffffffffffffffffffffffffffff82169050919050565b60006200025d8262000230565b9050919050565b6200026f8162000250565b81146200027b57600080fd5b50565b6000815190506200028f8162000264565b92915050565b60008060408385031215620002af57620002ae6200022b565b5b6000620002bf858286016200027e565b9250506020620002d2858286016200027e565b9150509250929050565b611cf980620002ec6000396000f3fe608060405234801561001057600080fd5b50600436106100885760003560e01c8063715018a61161005b578063715018a61461012a5780638da5cb5b1461013457806393e84cd914610152578063f2fde38b1461015c57610088565b8063140fc4b51461008d5780632748cc06146100be5780634b32b51f146100f05780635229a6fd1461010e575b600080fd5b6100a760048036038101906100a291906112bf565b610178565b6040516100b59291906112fb565b60405180910390f35b6100d860048036038101906100d39190611324565b61019c565b6040516100e79392919061137f565b60405180910390f35b6100f86101f0565b60405161010591906113b6565b60405180910390f35b610128600480360381019061012391906113fd565b6101f6565b005b61013261052c565b005b61013c610540565b604051610149919061147e565b60405180910390f35b61015a610569565b005b610176600480360381019061017191906114c5565b61058b565b005b60066020528060005260406000206000915090508060000154908060010154905082565b600560205281600052604060002081815481106101b857600080fd5b9060005260206000209060030201600091509150508060000154908060010160009054906101000a900460ff16908060020154905083565b60045481565b6002600154141561023c576040517f08c379a00000000000000000000000000000000000000000000000000000000081526004016102339061154f565b60405180910390fd5b600260018190555061024c61060f565b61025461080b565b61025d816109e4565b600260009054906101000a900473ffffffffffffffffffffffffffffffffffffffff1673ffffffffffffffffffffffffffffffffffffffff166323b872dd3330846040518463ffffffff1660e01b81526004016102bc9392919061156f565b602060405180830381600087803b1580156102d657600080fd5b505af11580156102ea573d6000803e3d6000fd5b505050506040513d601f19601f8201168201806040525081019061030e91906115bb565b50600360009054906101000a900473ffffffffffffffffffffffffffffffffffffffff1673ffffffffffffffffffffffffffffffffffffffff1663d848f991610355610cdd565b6040518263ffffffff1660e01b8152600401610371919061147e565b600060405180830381600087803b15801561038b57600080fd5b505af115801561039f573d6000803e3d6000fd5b5050505060006040518060600160405280600360009054906101000a900473ffffffffffffffffffffffffffffffffffffffff1673ffffffffffffffffffffffffffffffffffffffff166395ef1aeb336040518263ffffffff1660e01b815260040161040b919061147e565b60206040518083038186803b15801561042357600080fd5b505afa158015610437573d6000803e3d6000fd5b505050506040513d601f19601f8201168201806040525081019061045b91906115fd565b815260200184151581526020018381525090506005600060045481526020019081526020016000208190806001815401808255809150506001900390600052602060002090600302016000909190919091506000820151816000015560208201518160010160006101000a81548160ff0219169083151502179055506040820151816002015550507fcff17cd086384fb4d0e891da5ecbf7b914f94dba439a457bc3df38a295aef4f933600454846040516105189392919061162a565b60405180910390a150600180819055505050565b610534610ce5565b61053e6000610d63565b565b60008060009054906101000a900473ffffffffffffffffffffffffffffffffffffffff16905090565b610571610ce5565b610579610e27565b610581610f32565b610589611264565b565b610593610ce5565b600073ffffffffffffffffffffffffffffffffffffffff168173ffffffffffffffffffffffffffffffffffffffff161415610603576040517f08c379a00000000000000000000000000000000000000000000000000000000081526004016105fa906116d3565b60405180910390fd5b61060c81610d63565b50565b6000600360009054906101000a900473ffffffffffffffffffffffffffffffffffffffff1673ffffffffffffffffffffffffffffffffffffffff166395ef1aeb610657610cdd565b6040518263ffffffff1660e01b8152600401610673919061147e565b60206040518083038186803b15801561068b57600080fd5b505afa15801561069f573d6000803e3d6000fd5b505050506040513d601f19601f820116820180604052508101906106c391906115fd565b90506000811415610709576040517f08c379a000000000000000000000000000000000000000000000000000000000815260040161070090611765565b60405180910390fd5b6000600360009054906101000a900473ffffffffffffffffffffffffffffffffffffffff1673ffffffffffffffffffffffffffffffffffffffff1663ba2eb541610751610cdd565b6040518263ffffffff1660e01b815260040161076d919061147e565b60206040518083038186803b15801561078557600080fd5b505afa158015610799573d6000803e3d6000fd5b505050506040513d601f19601f820116820180604052508101906107bd91906115bb565b9050600115158115151415610807576040517f08c379a00000000000000000000000000000000000000000000000000000000081526004016107fe906117f7565b60405180910390fd5b5050565b6000600360009054906101000a900473ffffffffffffffffffffffffffffffffffffffff1673ffffffffffffffffffffffffffffffffffffffff166395ef1aeb610853610cdd565b6040518263ffffffff1660e01b815260040161086f919061147e565b60206040518083038186803b15801561088757600080fd5b505afa15801561089b573d6000803e3d6000fd5b505050506040513d601f19601f820116820180604052508101906108bf91906115fd565b90506000600560006004548152602001908152602001600020805480602002602001604051908101604052809291908181526020016000905b828210156109595783829060005260206000209060030201604051806060016040529081600082015481526020016001820160009054906101000a900460ff16151515158152602001600282015481525050815260200190600101906108f8565b50505050905060005b81518110156109df578282828151811061097f5761097e611817565b5b60200260200101516000015114156109cc576040517f08c379a00000000000000000000000000000000000000000000000000000000081526004016109c390611892565b60405180910390fd5b80806109d7906118e1565b915050610962565b505050565b80600260009054906101000a900473ffffffffffffffffffffffffffffffffffffffff1673ffffffffffffffffffffffffffffffffffffffff166370a08231610a2b610cdd565b6040518263ffffffff1660e01b8152600401610a47919061147e565b60206040518083038186803b158015610a5f57600080fd5b505afa158015610a73573d6000803e3d6000fd5b505050506040513d601f19601f82011682018060405250810190610a9791906115fd565b1015610ad8576040517f08c379a0000000000000000000000000000000000000000000000000000000008152600401610acf9061199c565b60405180910390fd5b6000600560006004548152602001908152602001600020805480602002602001604051908101604052809291908181526020016000905b82821015610b705783829060005260206000209060030201604051806060016040529081600082015481526020016001820160009054906101000a900460ff1615151515815260200160028201548152505081526020019060010190610b0f565b5050505090506000805b8251811015610bc257828181518110610b9657610b95611817565b5b60200260200101516040015182610bad91906119bc565b91508080610bba906118e1565b915050610b7a565b50600060028483610bd391906119bc565b610bdd9190611a12565b905083600260009054906101000a900473ffffffffffffffffffffffffffffffffffffffff1673ffffffffffffffffffffffffffffffffffffffff166370a08231306040518263ffffffff1660e01b8152600401610c3b919061147e565b60206040518083038186803b158015610c5357600080fd5b505afa158015610c67573d6000803e3d6000fd5b505050506040513d601f19601f82011682018060405250810190610c8b91906115fd565b610c9591906119bc565b811115610cd7576040517f08c379a0000000000000000000000000000000000000000000000000000000008152600401610cce90611ade565b60405180910390fd5b50505050565b600033905090565b610ced610cdd565b73ffffffffffffffffffffffffffffffffffffffff16610d0b610540565b73ffffffffffffffffffffffffffffffffffffffff1614610d61576040517f08c379a0000000000000000000000000000000000000000000000000000000008152600401610d5890611b4a565b60405180910390fd5b565b60008060009054906101000a900473ffffffffffffffffffffffffffffffffffffffff169050816000806101000a81548173ffffffffffffffffffffffffffffffffffffffff021916908373ffffffffffffffffffffffffffffffffffffffff1602179055508173ffffffffffffffffffffffffffffffffffffffff168173ffffffffffffffffffffffffffffffffffffffff167f8be0079c531659141344cd1fd0a4f28419497f9722a3daafe3b4186f6b6457e060405160405180910390a35050565b610e2f610ce5565b6000600343610e3e9190611b99565b600244610e4b9190611a12565b600f42610e589190611bca565b610e6291906119bc565b610e6c9190611bfb565b90506000600444600243610e809190611a12565b601760054642610e909190611b99565b610e9a91906119bc565b610ea49190611bca565b610eae91906119bc565b610eb891906119bc565b610ec29190611b99565b90506001600683610ed39190611bca565b610edd91906119bc565b600660006004548152602001908152602001600020600001819055506001600682610f089190611bca565b610f1291906119bc565b600660006004548152602001908152602001600020600101819055505050565b610f3a610ce5565b6000600560006004548152602001908152602001600020805480602002602001604051908101604052809291908181526020016000905b82821015610fd25783829060005260206000209060030201604051806060016040529081600082015481526020016001820160009054906101000a900460ff1615151515815260200160028201548152505081526020019060010190610f71565b50505050905060006006600060045481526020019081526020016000206040518060400160405290816000820154815260200160018201548152505090506000600160028360200151846000015161102a91906119bc565b6110349190611bca565b14905060005b83518110156112235781151584828151811061105957611058611817565b5b6020026020010151602001511515141561121057600260009054906101000a900473ffffffffffffffffffffffffffffffffffffffff1673ffffffffffffffffffffffffffffffffffffffff1663a9059cbb600360009054906101000a900473ffffffffffffffffffffffffffffffffffffffff1673ffffffffffffffffffffffffffffffffffffffff16636352211e8785815181106110fc576110fb611817565b5b6020026020010151600001516040518263ffffffff1660e01b815260040161112491906113b6565b60206040518083038186803b15801561113c57600080fd5b505afa158015611150573d6000803e3d6000fd5b505050506040513d601f19601f820116820180604052508101906111749190611c44565b600287858151811061118957611188611817565b5b60200260200101516040015161119f9190611a12565b6040518363ffffffff1660e01b81526004016111bc929190611c71565b602060405180830381600087803b1580156111d657600080fd5b505af11580156111ea573d6000803e3d6000fd5b505050506040513d601f19601f8201168201806040525081019061120e91906115bb565b505b808061121b906118e1565b91505061103a565b507f98ddc2224540c293ef782a16f7b3859c25466ed9326cf40ed8c141e9ff790f5860045482604051611257929190611c9a565b60405180910390a1505050565b61126c610ce5565b60046000815461127b906118e1565b91905081905550565b600080fd5b6000819050919050565b61129c81611289565b81146112a757600080fd5b50565b6000813590506112b981611293565b92915050565b6000602082840312156112d5576112d4611284565b5b60006112e3848285016112aa565b91505092915050565b6112f581611289565b82525050565b600060408201905061131060008301856112ec565b61131d60208301846112ec565b9392505050565b6000806040838503121561133b5761133a611284565b5b6000611349858286016112aa565b925050602061135a858286016112aa565b9150509250929050565b60008115159050919050565b61137981611364565b82525050565b600060608201905061139460008301866112ec565b6113a16020830185611370565b6113ae60408301846112ec565b949350505050565b60006020820190506113cb60008301846112ec565b92915050565b6113da81611364565b81146113e557600080fd5b50565b6000813590506113f7816113d1565b92915050565b6000806040838503121561141457611413611284565b5b6000611422858286016113e8565b9250506020611433858286016112aa565b9150509250929050565b600073ffffffffffffffffffffffffffffffffffffffff82169050919050565b60006114688261143d565b9050919050565b6114788161145d565b82525050565b6000602082019050611493600083018461146f565b92915050565b6114a28161145d565b81146114ad57600080fd5b50565b6000813590506114bf81611499565b92915050565b6000602082840312156114db576114da611284565b5b60006114e9848285016114b0565b91505092915050565b600082825260208201905092915050565b7f5265656e7472616e637947756172643a207265656e7472616e742063616c6c00600082015250565b6000611539601f836114f2565b915061154482611503565b602082019050919050565b600060208201905081810360008301526115688161152c565b9050919050565b6000606082019050611584600083018661146f565b611591602083018561146f565b61159e60408301846112ec565b949350505050565b6000815190506115b5816113d1565b92915050565b6000602082840312156115d1576115d0611284565b5b60006115df848285016115a6565b91505092915050565b6000815190506115f781611293565b92915050565b60006020828403121561161357611612611284565b5b6000611621848285016115e8565b91505092915050565b600060608201905061163f600083018661146f565b61164c60208301856112ec565b61165960408301846112ec565b949350505050565b7f4f776e61626c653a206e6577206f776e657220697320746865207a65726f206160008201527f6464726573730000000000000000000000000000000000000000000000000000602082015250565b60006116bd6026836114f2565b91506116c882611661565b604082019050919050565b600060208201905081810360008301526116ec816116b0565b9050919050565b7f54686973207573657220646f6573206e6f742068617665207469636b65742e2060008201527f506c65617365206275792061206f6e6520746f20706c61790000000000000000602082015250565b600061174f6038836114f2565b915061175a826116f3565b604082019050919050565b6000602082019050818103600083015261177e81611742565b9050919050565b7f5468697320757365722773207469636b657420697320657870697265642e205060008201527f6c65617365206275792061206e6577206f6e6520746f20706c61790000000000602082015250565b60006117e1603b836114f2565b91506117ec82611785565b604082019050919050565b60006020820190508181036000830152611810816117d4565b9050919050565b7f4e487b7100000000000000000000000000000000000000000000000000000000600052603260045260246000fd5b7f5468697320757365722068617320626574206265666f72652100000000000000600082015250565b600061187c6019836114f2565b915061188782611846565b602082019050919050565b600060208201905081810360008301526118ab8161186f565b9050919050565b7f4e487b7100000000000000000000000000000000000000000000000000000000600052601160045260246000fd5b60006118ec82611289565b91507fffffffffffffffffffffffffffffffffffffffffffffffffffffffffffffffff82141561191f5761191e6118b2565b5b600182019050919050565b7f5573657227732062616c616e6365206973206e6f7420656e6f75676820746f2060008201527f6265740000000000000000000000000000000000000000000000000000000000602082015250565b60006119866023836114f2565b91506119918261192a565b604082019050919050565b600060208201905081810360008301526119b581611979565b9050919050565b60006119c782611289565b91506119d283611289565b9250827fffffffffffffffffffffffffffffffffffffffffffffffffffffffffffffffff03821115611a0757611a066118b2565b5b828201905092915050565b6000611a1d82611289565b9150611a2883611289565b9250817fffffffffffffffffffffffffffffffffffffffffffffffffffffffffffffffff0483118215151615611a6157611a606118b2565b5b828202905092915050565b7f436f6e7472616374206973206e6f7420656e6f756768206361736820746f207260008201527f657761726420696620757365722077696e000000000000000000000000000000602082015250565b6000611ac86031836114f2565b9150611ad382611a6c565b604082019050919050565b60006020820190508181036000830152611af781611abb565b9050919050565b7f4f776e61626c653a2063616c6c6572206973206e6f7420746865206f776e6572600082015250565b6000611b346020836114f2565b9150611b3f82611afe565b602082019050919050565b60006020820190508181036000830152611b6381611b27565b9050919050565b7f4e487b7100000000000000000000000000000000000000000000000000000000600052601260045260246000fd5b6000611ba482611289565b9150611baf83611289565b925082611bbf57611bbe611b6a565b5b828204905092915050565b6000611bd582611289565b9150611be083611289565b925082611bf057611bef611b6a565b5b828206905092915050565b6000611c0682611289565b9150611c1183611289565b925082821015611c2457611c236118b2565b5b828203905092915050565b600081519050611c3e81611499565b92915050565b600060208284031215611c5a57611c59611284565b5b6000611c6884828501611c2f565b91505092915050565b6000604082019050611c86600083018561146f565b611c9360208301846112ec565b9392505050565b6000604082019050611caf60008301856112ec565b611cbc6020830184611370565b939250505056fea2646970667358221220afd083831cd782308edc3c05d7da567d1d247ced6c1350c68e41df4ed4521d6b64736f6c63430008090033",
  "linkReferences": {},
  "deployedLinkReferences": {}
}